{
  "_format": "hh-sol-artifact-1",
  "contractName": "InPersonTicketNFT",
  "sourceName": "contracts/InPersonTicketNFT.sol",
  "abi": [
    {
      "inputs": [
        {
          "internalType": "address",
          "name": "addr",
          "type": "address"
        }
      ],
      "stateMutability": "nonpayable",
      "type": "constructor"
    },
    {
      "anonymous": false,
      "inputs": [
        {
          "indexed": true,
          "internalType": "address",
          "name": "owner",
          "type": "address"
        },
        {
          "indexed": true,
          "internalType": "address",
          "name": "approved",
          "type": "address"
        },
        {
          "indexed": true,
          "internalType": "uint256",
          "name": "tokenId",
          "type": "uint256"
        }
      ],
      "name": "Approval",
      "type": "event"
    },
    {
      "anonymous": false,
      "inputs": [
        {
          "indexed": true,
          "internalType": "address",
          "name": "owner",
          "type": "address"
        },
        {
          "indexed": true,
          "internalType": "address",
          "name": "operator",
          "type": "address"
        },
        {
          "indexed": false,
          "internalType": "bool",
          "name": "approved",
          "type": "bool"
        }
      ],
      "name": "ApprovalForAll",
      "type": "event"
    },
    {
      "anonymous": false,
      "inputs": [
        {
          "indexed": false,
          "internalType": "address",
          "name": "recipient",
          "type": "address"
        },
        {
          "indexed": false,
          "internalType": "uint256",
          "name": "tokenId",
          "type": "uint256"
        },
        {
          "indexed": false,
          "internalType": "string",
          "name": "tokenURI",
          "type": "string"
        }
      ],
      "name": "NftEvent",
      "type": "event"
    },
    {
      "anonymous": false,
      "inputs": [
        {
          "indexed": true,
          "internalType": "address",
          "name": "previousOwner",
          "type": "address"
        },
        {
          "indexed": true,
          "internalType": "address",
          "name": "newOwner",
          "type": "address"
        }
      ],
      "name": "OwnershipTransferred",
      "type": "event"
    },
    {
      "anonymous": false,
      "inputs": [
        {
          "indexed": true,
          "internalType": "address",
          "name": "from",
          "type": "address"
        },
        {
          "indexed": true,
          "internalType": "address",
          "name": "to",
          "type": "address"
        },
        {
          "indexed": true,
          "internalType": "uint256",
          "name": "tokenId",
          "type": "uint256"
        }
      ],
      "name": "Transfer",
      "type": "event"
    },
    {
      "inputs": [],
      "name": "DaoTicketAddress",
      "outputs": [
        {
          "internalType": "address",
          "name": "",
          "type": "address"
        }
      ],
      "stateMutability": "view",
      "type": "function"
    },
    {
      "inputs": [
        {
          "internalType": "address",
          "name": "to",
          "type": "address"
        },
        {
          "internalType": "uint256",
          "name": "tokenId",
          "type": "uint256"
        }
      ],
      "name": "approve",
      "outputs": [],
      "stateMutability": "nonpayable",
      "type": "function"
    },
    {
      "inputs": [
        {
          "internalType": "address",
          "name": "owner",
          "type": "address"
        }
      ],
      "name": "balanceOf",
      "outputs": [
        {
          "internalType": "uint256",
          "name": "",
          "type": "uint256"
        }
      ],
      "stateMutability": "view",
      "type": "function"
    },
    {
      "inputs": [
        {
          "internalType": "uint256",
          "name": "tokenId",
          "type": "uint256"
        }
      ],
      "name": "getApproved",
      "outputs": [
        {
          "internalType": "address",
          "name": "",
          "type": "address"
        }
      ],
      "stateMutability": "view",
      "type": "function"
    },
    {
      "inputs": [
        {
          "internalType": "address",
          "name": "owner",
          "type": "address"
        },
        {
          "internalType": "address",
          "name": "operator",
          "type": "address"
        }
      ],
      "name": "isApprovedForAll",
      "outputs": [
        {
          "internalType": "bool",
          "name": "",
          "type": "bool"
        }
      ],
      "stateMutability": "view",
      "type": "function"
    },
    {
      "inputs": [
        {
          "internalType": "address",
          "name": "recipient",
          "type": "address"
        }
      ],
      "name": "mintNFT",
      "outputs": [
        {
          "internalType": "uint256",
          "name": "",
          "type": "uint256"
        }
      ],
      "stateMutability": "nonpayable",
      "type": "function"
    },
    {
      "inputs": [],
      "name": "name",
      "outputs": [
        {
          "internalType": "string",
          "name": "",
          "type": "string"
        }
      ],
      "stateMutability": "view",
      "type": "function"
    },
    {
      "inputs": [],
      "name": "owner",
      "outputs": [
        {
          "internalType": "address",
          "name": "",
          "type": "address"
        }
      ],
      "stateMutability": "view",
      "type": "function"
    },
    {
      "inputs": [
        {
          "internalType": "uint256",
          "name": "tokenId",
          "type": "uint256"
        }
      ],
      "name": "ownerOf",
      "outputs": [
        {
          "internalType": "address",
          "name": "",
          "type": "address"
        }
      ],
      "stateMutability": "view",
      "type": "function"
    },
    {
      "inputs": [],
      "name": "renounceOwnership",
      "outputs": [],
      "stateMutability": "nonpayable",
      "type": "function"
    },
    {
      "inputs": [
        {
          "internalType": "address",
          "name": "from",
          "type": "address"
        },
        {
          "internalType": "address",
          "name": "to",
          "type": "address"
        },
        {
          "internalType": "uint256",
          "name": "tokenId",
          "type": "uint256"
        }
      ],
      "name": "safeTransferFrom",
      "outputs": [],
      "stateMutability": "nonpayable",
      "type": "function"
    },
    {
      "inputs": [
        {
          "internalType": "address",
          "name": "from",
          "type": "address"
        },
        {
          "internalType": "address",
          "name": "to",
          "type": "address"
        },
        {
          "internalType": "uint256",
          "name": "tokenId",
          "type": "uint256"
        },
        {
          "internalType": "bytes",
          "name": "data",
          "type": "bytes"
        }
      ],
      "name": "safeTransferFrom",
      "outputs": [],
      "stateMutability": "nonpayable",
      "type": "function"
    },
    {
      "inputs": [
        {
          "internalType": "address",
          "name": "operator",
          "type": "address"
        },
        {
          "internalType": "bool",
          "name": "approved",
          "type": "bool"
        }
      ],
      "name": "setApprovalForAll",
      "outputs": [],
      "stateMutability": "nonpayable",
      "type": "function"
    },
    {
      "inputs": [
        {
          "internalType": "bytes4",
          "name": "interfaceId",
          "type": "bytes4"
        }
      ],
      "name": "supportsInterface",
      "outputs": [
        {
          "internalType": "bool",
          "name": "",
          "type": "bool"
        }
      ],
      "stateMutability": "view",
      "type": "function"
    },
    {
      "inputs": [],
      "name": "symbol",
      "outputs": [
        {
          "internalType": "string",
          "name": "",
          "type": "string"
        }
      ],
      "stateMutability": "view",
      "type": "function"
    },
    {
      "inputs": [],
      "name": "tokenIds",
      "outputs": [
        {
          "internalType": "uint256",
          "name": "_value",
          "type": "uint256"
        }
      ],
      "stateMutability": "view",
      "type": "function"
    },
    {
      "inputs": [
        {
          "internalType": "uint256",
          "name": "tokenId",
          "type": "uint256"
        }
      ],
      "name": "tokenURI",
      "outputs": [
        {
          "internalType": "string",
          "name": "",
          "type": "string"
        }
      ],
      "stateMutability": "view",
      "type": "function"
    },
    {
      "inputs": [
        {
          "internalType": "address",
          "name": "from",
          "type": "address"
        },
        {
          "internalType": "address",
          "name": "to",
          "type": "address"
        },
        {
          "internalType": "uint256",
          "name": "tokenId",
          "type": "uint256"
        }
      ],
      "name": "transferFrom",
      "outputs": [],
      "stateMutability": "nonpayable",
      "type": "function"
    },
    {
      "inputs": [
        {
          "internalType": "address",
          "name": "newOwner",
          "type": "address"
        }
      ],
      "name": "transferOwnership",
      "outputs": [],
      "stateMutability": "nonpayable",
      "type": "function"
    }
  ],
  "bytecode": "0x60806040523480156200001157600080fd5b506040516200351f3803806200351f833981810160405281019062000037919062000269565b6040518060400160405280601181526020017f496e506572736f6e5469636b65744e46540000000000000000000000000000008152506040518060400160405280600381526020017f4e465400000000000000000000000000000000000000000000000000000000008152508160009081620000b4919062000515565b508060019081620000c6919062000515565b505050620000e9620000dd6200013160201b60201c565b6200013960201b60201c565b80600960006101000a81548173ffffffffffffffffffffffffffffffffffffffff021916908373ffffffffffffffffffffffffffffffffffffffff16021790555050620005fc565b600033905090565b6000600760009054906101000a900473ffffffffffffffffffffffffffffffffffffffff16905081600760006101000a81548173ffffffffffffffffffffffffffffffffffffffff021916908373ffffffffffffffffffffffffffffffffffffffff1602179055508173ffffffffffffffffffffffffffffffffffffffff168173ffffffffffffffffffffffffffffffffffffffff167f8be0079c531659141344cd1fd0a4f28419497f9722a3daafe3b4186f6b6457e060405160405180910390a35050565b600080fd5b600073ffffffffffffffffffffffffffffffffffffffff82169050919050565b6000620002318262000204565b9050919050565b620002438162000224565b81146200024f57600080fd5b50565b600081519050620002638162000238565b92915050565b600060208284031215620002825762000281620001ff565b5b6000620002928482850162000252565b91505092915050565b600081519050919050565b7f4e487b7100000000000000000000000000000000000000000000000000000000600052604160045260246000fd5b7f4e487b7100000000000000000000000000000000000000000000000000000000600052602260045260246000fd5b600060028204905060018216806200031d57607f821691505b602082108103620003335762000332620002d5565b5b50919050565b60008190508160005260206000209050919050565b60006020601f8301049050919050565b600082821b905092915050565b6000600883026200039d7fffffffffffffffffffffffffffffffffffffffffffffffffffffffffffffffff826200035e565b620003a986836200035e565b95508019841693508086168417925050509392505050565b6000819050919050565b6000819050919050565b6000620003f6620003f0620003ea84620003c1565b620003cb565b620003c1565b9050919050565b6000819050919050565b6200041283620003d5565b6200042a6200042182620003fd565b8484546200036b565b825550505050565b600090565b6200044162000432565b6200044e81848462000407565b505050565b5b8181101562000476576200046a60008262000437565b60018101905062000454565b5050565b601f821115620004c5576200048f8162000339565b6200049a846200034e565b81016020851015620004aa578190505b620004c2620004b9856200034e565b83018262000453565b50505b505050565b600082821c905092915050565b6000620004ea60001984600802620004ca565b1980831691505092915050565b6000620005058383620004d7565b9150826002028217905092915050565b62000520826200029b565b67ffffffffffffffff8111156200053c576200053b620002a6565b5b62000548825462000304565b620005558282856200047a565b600060209050601f8311600181146200058d576000841562000578578287015190505b620005848582620004f7565b865550620005f4565b601f1984166200059d8662000339565b60005b82811015620005c757848901518255600182019150602085019450602081019050620005a0565b86831015620005e75784890151620005e3601f891682620004d7565b8355505b6001600288020188555050505b505050505050565b612f13806200060c6000396000f3fe608060405234801561001057600080fd5b50600436106101215760003560e01c806370a08231116100ad578063a22cb46511610071578063a22cb4651461030a578063b88d4fde14610326578063c87b56dd14610342578063e985e9c514610372578063f2fde38b146103a257610121565b806370a0823114610276578063714cff56146102a6578063715018a6146102c45780638da5cb5b146102ce57806395d89b41146102ec57610121565b806323b872dd116100f457806323b872dd146101c0578063357b1288146101dc57806342842e0e146101fa57806354ba0f27146102165780636352211e1461024657610121565b806301ffc9a71461012657806306fdde0314610156578063081812fc14610174578063095ea7b3146101a4575b600080fd5b610140600480360381019061013b9190611b8c565b6103be565b60405161014d9190611bd4565b60405180910390f35b61015e6104a0565b60405161016b9190611c7f565b60405180910390f35b61018e60048036038101906101899190611cd7565b610532565b60405161019b9190611d45565b60405180910390f35b6101be60048036038101906101b99190611d8c565b610578565b005b6101da60048036038101906101d59190611dcc565b61068f565b005b6101e46106ef565b6040516101f19190611d45565b60405180910390f35b610214600480360381019061020f9190611dcc565b610715565b005b610230600480360381019061022b9190611e1f565b610735565b60405161023d9190611e5b565b60405180910390f35b610260600480360381019061025b9190611cd7565b610855565b60405161026d9190611d45565b60405180910390f35b610290600480360381019061028b9190611e1f565b610906565b60405161029d9190611e5b565b60405180910390f35b6102ae6109bd565b6040516102bb9190611e5b565b60405180910390f35b6102cc6109c9565b005b6102d66109dd565b6040516102e39190611d45565b60405180910390f35b6102f4610a07565b6040516103019190611c7f565b60405180910390f35b610324600480360381019061031f9190611ea2565b610a99565b005b610340600480360381019061033b9190612017565b610aaf565b005b61035c60048036038101906103579190611cd7565b610b11565b6040516103699190611c7f565b60405180910390f35b61038c6004803603810190610387919061209a565b610c23565b6040516103999190611bd4565b60405180910390f35b6103bc60048036038101906103b79190611e1f565b610cb7565b005b60007f80ac58cd000000000000000000000000000000000000000000000000000000007bffffffffffffffffffffffffffffffffffffffffffffffffffffffff1916827bffffffffffffffffffffffffffffffffffffffffffffffffffffffff1916148061048957507f5b5e139f000000000000000000000000000000000000000000000000000000007bffffffffffffffffffffffffffffffffffffffffffffffffffffffff1916827bffffffffffffffffffffffffffffffffffffffffffffffffffffffff1916145b80610499575061049882610d3a565b5b9050919050565b6060600080546104af90612109565b80601f01602080910402602001604051908101604052809291908181526020018280546104db90612109565b80156105285780601f106104fd57610100808354040283529160200191610528565b820191906000526020600020905b81548152906001019060200180831161050b57829003601f168201915b5050505050905090565b600061053d82610da4565b6004600083815260200190815260200160002060009054906101000a900473ffffffffffffffffffffffffffffffffffffffff169050919050565b600061058382610855565b90508073ffffffffffffffffffffffffffffffffffffffff168373ffffffffffffffffffffffffffffffffffffffff16036105f3576040517f08c379a00000000000000000000000000000000000000000000000000000000081526004016105ea906121ac565b60405180910390fd5b8073ffffffffffffffffffffffffffffffffffffffff16610612610def565b73ffffffffffffffffffffffffffffffffffffffff16148061064157506106408161063b610def565b610c23565b5b610680576040517f08c379a00000000000000000000000000000000000000000000000000000000081526004016106779061223e565b60405180910390fd5b61068a8383610df7565b505050565b6106a061069a610def565b82610eb0565b6106df576040517f08c379a00000000000000000000000000000000000000000000000000000000081526004016106d6906122d0565b60405180910390fd5b6106ea838383610f45565b505050565b600960009054906101000a900473ffffffffffffffffffffffffffffffffffffffff1681565b61073083838360405180602001604052806000815250610aaf565b505050565b6000600960009054906101000a900473ffffffffffffffffffffffffffffffffffffffff1673ffffffffffffffffffffffffffffffffffffffff163373ffffffffffffffffffffffffffffffffffffffff16146107c7576040517f08c379a00000000000000000000000000000000000000000000000000000000081526004016107be90612362565b60405180910390fd5b6107d160086111ab565b60006107dd60086111c1565b90506107e983826111cf565b6000604051806060016040528060358152602001612ea960359139905061081082826113a8565b7f78cd0b8cb283c9e59e1ce3924f0d16f7b91f4a1ef2e62744e3934f9407229b2a84838360405161084393929190612382565b60405180910390a18192505050919050565b6000806002600084815260200190815260200160002060009054906101000a900473ffffffffffffffffffffffffffffffffffffffff169050600073ffffffffffffffffffffffffffffffffffffffff168173ffffffffffffffffffffffffffffffffffffffff16036108fd576040517f08c379a00000000000000000000000000000000000000000000000000000000081526004016108f49061240c565b60405180910390fd5b80915050919050565b60008073ffffffffffffffffffffffffffffffffffffffff168273ffffffffffffffffffffffffffffffffffffffff1603610976576040517f08c379a000000000000000000000000000000000000000000000000000000000815260040161096d9061249e565b60405180910390fd5b600360008373ffffffffffffffffffffffffffffffffffffffff1673ffffffffffffffffffffffffffffffffffffffff168152602001908152602001600020549050919050565b60088060000154905081565b6109d1611415565b6109db6000611493565b565b6000600760009054906101000a900473ffffffffffffffffffffffffffffffffffffffff16905090565b606060018054610a1690612109565b80601f0160208091040260200160405190810160405280929190818152602001828054610a4290612109565b8015610a8f5780601f10610a6457610100808354040283529160200191610a8f565b820191906000526020600020905b815481529060010190602001808311610a7257829003601f168201915b5050505050905090565b610aab610aa4610def565b8383611559565b5050565b610ac0610aba610def565b83610eb0565b610aff576040517f08c379a0000000000000000000000000000000000000000000000000000000008152600401610af6906122d0565b60405180910390fd5b610b0b848484846116c5565b50505050565b6060610b1c82610da4565b6000600660008481526020019081526020016000208054610b3c90612109565b80601f0160208091040260200160405190810160405280929190818152602001828054610b6890612109565b8015610bb55780601f10610b8a57610100808354040283529160200191610bb5565b820191906000526020600020905b815481529060010190602001808311610b9857829003601f168201915b505050505090506000610bc6611721565b90506000815103610bdb578192505050610c1e565b600082511115610c10578082604051602001610bf89291906124fa565b60405160208183030381529060405292505050610c1e565b610c1984611738565b925050505b919050565b6000600560008473ffffffffffffffffffffffffffffffffffffffff1673ffffffffffffffffffffffffffffffffffffffff16815260200190815260200160002060008373ffffffffffffffffffffffffffffffffffffffff1673ffffffffffffffffffffffffffffffffffffffff16815260200190815260200160002060009054906101000a900460ff16905092915050565b610cbf611415565b600073ffffffffffffffffffffffffffffffffffffffff168173ffffffffffffffffffffffffffffffffffffffff1603610d2e576040517f08c379a0000000000000000000000000000000000000000000000000000000008152600401610d2590612590565b60405180910390fd5b610d3781611493565b50565b60007f01ffc9a7000000000000000000000000000000000000000000000000000000007bffffffffffffffffffffffffffffffffffffffffffffffffffffffff1916827bffffffffffffffffffffffffffffffffffffffffffffffffffffffff1916149050919050565b610dad816117a0565b610dec576040517f08c379a0000000000000000000000000000000000000000000000000000000008152600401610de39061240c565b60405180910390fd5b50565b600033905090565b816004600083815260200190815260200160002060006101000a81548173ffffffffffffffffffffffffffffffffffffffff021916908373ffffffffffffffffffffffffffffffffffffffff160217905550808273ffffffffffffffffffffffffffffffffffffffff16610e6a83610855565b73ffffffffffffffffffffffffffffffffffffffff167f8c5be1e5ebec7d5bd14f71427d1e84f3dd0314c0f7b2291e5b200ac8c7c3b92560405160405180910390a45050565b600080610ebc83610855565b90508073ffffffffffffffffffffffffffffffffffffffff168473ffffffffffffffffffffffffffffffffffffffff161480610efe5750610efd8185610c23565b5b80610f3c57508373ffffffffffffffffffffffffffffffffffffffff16610f2484610532565b73ffffffffffffffffffffffffffffffffffffffff16145b91505092915050565b8273ffffffffffffffffffffffffffffffffffffffff16610f6582610855565b73ffffffffffffffffffffffffffffffffffffffff1614610fbb576040517f08c379a0000000000000000000000000000000000000000000000000000000008152600401610fb290612622565b60405180910390fd5b600073ffffffffffffffffffffffffffffffffffffffff168273ffffffffffffffffffffffffffffffffffffffff160361102a576040517f08c379a0000000000000000000000000000000000000000000000000000000008152600401611021906126b4565b60405180910390fd5b61103583838361180c565b611040600082610df7565b6001600360008573ffffffffffffffffffffffffffffffffffffffff1673ffffffffffffffffffffffffffffffffffffffff16815260200190815260200160002060008282546110909190612703565b925050819055506001600360008473ffffffffffffffffffffffffffffffffffffffff1673ffffffffffffffffffffffffffffffffffffffff16815260200190815260200160002060008282546110e79190612737565b92505081905550816002600083815260200190815260200160002060006101000a81548173ffffffffffffffffffffffffffffffffffffffff021916908373ffffffffffffffffffffffffffffffffffffffff160217905550808273ffffffffffffffffffffffffffffffffffffffff168473ffffffffffffffffffffffffffffffffffffffff167fddf252ad1be2c89b69c2b068fc378daa952ba7f163c4a11628f55a4df523b3ef60405160405180910390a46111a6838383611811565b505050565b6001816000016000828254019250508190555050565b600081600001549050919050565b600073ffffffffffffffffffffffffffffffffffffffff168273ffffffffffffffffffffffffffffffffffffffff160361123e576040517f08c379a0000000000000000000000000000000000000000000000000000000008152600401611235906127b7565b60405180910390fd5b611247816117a0565b15611287576040517f08c379a000000000000000000000000000000000000000000000000000000000815260040161127e90612823565b60405180910390fd5b6112936000838361180c565b6001600360008473ffffffffffffffffffffffffffffffffffffffff1673ffffffffffffffffffffffffffffffffffffffff16815260200190815260200160002060008282546112e39190612737565b92505081905550816002600083815260200190815260200160002060006101000a81548173ffffffffffffffffffffffffffffffffffffffff021916908373ffffffffffffffffffffffffffffffffffffffff160217905550808273ffffffffffffffffffffffffffffffffffffffff16600073ffffffffffffffffffffffffffffffffffffffff167fddf252ad1be2c89b69c2b068fc378daa952ba7f163c4a11628f55a4df523b3ef60405160405180910390a46113a460008383611811565b5050565b6113b1826117a0565b6113f0576040517f08c379a00000000000000000000000000000000000000000000000000000000081526004016113e7906128b5565b60405180910390fd5b806006600084815260200190815260200160002090816114109190612a81565b505050565b61141d610def565b73ffffffffffffffffffffffffffffffffffffffff1661143b6109dd565b73ffffffffffffffffffffffffffffffffffffffff1614611491576040517f08c379a000000000000000000000000000000000000000000000000000000000815260040161148890612b9f565b60405180910390fd5b565b6000600760009054906101000a900473ffffffffffffffffffffffffffffffffffffffff16905081600760006101000a81548173ffffffffffffffffffffffffffffffffffffffff021916908373ffffffffffffffffffffffffffffffffffffffff1602179055508173ffffffffffffffffffffffffffffffffffffffff168173ffffffffffffffffffffffffffffffffffffffff167f8be0079c531659141344cd1fd0a4f28419497f9722a3daafe3b4186f6b6457e060405160405180910390a35050565b8173ffffffffffffffffffffffffffffffffffffffff168373ffffffffffffffffffffffffffffffffffffffff16036115c7576040517f08c379a00000000000000000000000000000000000000000000000000000000081526004016115be90612c0b565b60405180910390fd5b80600560008573ffffffffffffffffffffffffffffffffffffffff1673ffffffffffffffffffffffffffffffffffffffff16815260200190815260200160002060008473ffffffffffffffffffffffffffffffffffffffff1673ffffffffffffffffffffffffffffffffffffffff16815260200190815260200160002060006101000a81548160ff0219169083151502179055508173ffffffffffffffffffffffffffffffffffffffff168373ffffffffffffffffffffffffffffffffffffffff167f17307eab39ab6107e8899845ad3d59bd9653f200f220920489ca2b5937696c31836040516116b89190611bd4565b60405180910390a3505050565b6116d0848484610f45565b6116dc84848484611816565b61171b576040517f08c379a000000000000000000000000000000000000000000000000000000000815260040161171290612c9d565b60405180910390fd5b50505050565b606060405180602001604052806000815250905090565b606061174382610da4565b600061174d611721565b9050600081511161176d5760405180602001604052806000815250611798565b806117778461199d565b6040516020016117889291906124fa565b6040516020818303038152906040525b915050919050565b60008073ffffffffffffffffffffffffffffffffffffffff166002600084815260200190815260200160002060009054906101000a900473ffffffffffffffffffffffffffffffffffffffff1673ffffffffffffffffffffffffffffffffffffffff1614159050919050565b505050565b505050565b60006118378473ffffffffffffffffffffffffffffffffffffffff16611afd565b15611990578373ffffffffffffffffffffffffffffffffffffffff1663150b7a02611860610def565b8786866040518563ffffffff1660e01b81526004016118829493929190612d12565b6020604051808303816000875af19250505080156118be57506040513d601f19601f820116820180604052508101906118bb9190612d73565b60015b611940573d80600081146118ee576040519150601f19603f3d011682016040523d82523d6000602084013e6118f3565b606091505b506000815103611938576040517f08c379a000000000000000000000000000000000000000000000000000000000815260040161192f90612c9d565b60405180910390fd5b805181602001fd5b63150b7a0260e01b7bffffffffffffffffffffffffffffffffffffffffffffffffffffffff1916817bffffffffffffffffffffffffffffffffffffffffffffffffffffffff191614915050611995565b600190505b949350505050565b6060600082036119e4576040518060400160405280600181526020017f30000000000000000000000000000000000000000000000000000000000000008152509050611af8565b600082905060005b60008214611a165780806119ff90612da0565b915050600a82611a0f9190612e17565b91506119ec565b60008167ffffffffffffffff811115611a3257611a31611eec565b5b6040519080825280601f01601f191660200182016040528015611a645781602001600182028036833780820191505090505b5090505b60008514611af157600182611a7d9190612703565b9150600a85611a8c9190612e48565b6030611a989190612737565b60f81b818381518110611aae57611aad612e79565b5b60200101907effffffffffffffffffffffffffffffffffffffffffffffffffffffffffffff1916908160001a905350600a85611aea9190612e17565b9450611a68565b8093505050505b919050565b6000808273ffffffffffffffffffffffffffffffffffffffff163b119050919050565b6000604051905090565b600080fd5b600080fd5b60007fffffffff0000000000000000000000000000000000000000000000000000000082169050919050565b611b6981611b34565b8114611b7457600080fd5b50565b600081359050611b8681611b60565b92915050565b600060208284031215611ba257611ba1611b2a565b5b6000611bb084828501611b77565b91505092915050565b60008115159050919050565b611bce81611bb9565b82525050565b6000602082019050611be96000830184611bc5565b92915050565b600081519050919050565b600082825260208201905092915050565b60005b83811015611c29578082015181840152602081019050611c0e565b60008484015250505050565b6000601f19601f8301169050919050565b6000611c5182611bef565b611c5b8185611bfa565b9350611c6b818560208601611c0b565b611c7481611c35565b840191505092915050565b60006020820190508181036000830152611c998184611c46565b905092915050565b6000819050919050565b611cb481611ca1565b8114611cbf57600080fd5b50565b600081359050611cd181611cab565b92915050565b600060208284031215611ced57611cec611b2a565b5b6000611cfb84828501611cc2565b91505092915050565b600073ffffffffffffffffffffffffffffffffffffffff82169050919050565b6000611d2f82611d04565b9050919050565b611d3f81611d24565b82525050565b6000602082019050611d5a6000830184611d36565b92915050565b611d6981611d24565b8114611d7457600080fd5b50565b600081359050611d8681611d60565b92915050565b60008060408385031215611da357611da2611b2a565b5b6000611db185828601611d77565b9250506020611dc285828601611cc2565b9150509250929050565b600080600060608486031215611de557611de4611b2a565b5b6000611df386828701611d77565b9350506020611e0486828701611d77565b9250506040611e1586828701611cc2565b9150509250925092565b600060208284031215611e3557611e34611b2a565b5b6000611e4384828501611d77565b91505092915050565b611e5581611ca1565b82525050565b6000602082019050611e706000830184611e4c565b92915050565b611e7f81611bb9565b8114611e8a57600080fd5b50565b600081359050611e9c81611e76565b92915050565b60008060408385031215611eb957611eb8611b2a565b5b6000611ec785828601611d77565b9250506020611ed885828601611e8d565b9150509250929050565b600080fd5b600080fd5b7f4e487b7100000000000000000000000000000000000000000000000000000000600052604160045260246000fd5b611f2482611c35565b810181811067ffffffffffffffff82111715611f4357611f42611eec565b5b80604052505050565b6000611f56611b20565b9050611f628282611f1b565b919050565b600067ffffffffffffffff821115611f8257611f81611eec565b5b611f8b82611c35565b9050602081019050919050565b82818337600083830152505050565b6000611fba611fb584611f67565b611f4c565b905082815260208101848484011115611fd657611fd5611ee7565b5b611fe1848285611f98565b509392505050565b600082601f830112611ffe57611ffd611ee2565b5b813561200e848260208601611fa7565b91505092915050565b6000806000806080858703121561203157612030611b2a565b5b600061203f87828801611d77565b945050602061205087828801611d77565b935050604061206187828801611cc2565b925050606085013567ffffffffffffffff81111561208257612081611b2f565b5b61208e87828801611fe9565b91505092959194509250565b600080604083850312156120b1576120b0611b2a565b5b60006120bf85828601611d77565b92505060206120d085828601611d77565b9150509250929050565b7f4e487b7100000000000000000000000000000000000000000000000000000000600052602260045260246000fd5b6000600282049050600182168061212157607f821691505b602082108103612134576121336120da565b5b50919050565b7f4552433732313a20617070726f76616c20746f2063757272656e74206f776e6560008201527f7200000000000000000000000000000000000000000000000000000000000000602082015250565b6000612196602183611bfa565b91506121a18261213a565b604082019050919050565b600060208201905081810360008301526121c581612189565b9050919050565b7f4552433732313a20617070726f76652063616c6c6572206973206e6f7420746f60008201527f6b656e206f776e6572206e6f7220617070726f76656420666f7220616c6c0000602082015250565b6000612228603e83611bfa565b9150612233826121cc565b604082019050919050565b600060208201905081810360008301526122578161221b565b9050919050565b7f4552433732313a2063616c6c6572206973206e6f7420746f6b656e206f776e6560008201527f72206e6f7220617070726f766564000000000000000000000000000000000000602082015250565b60006122ba602e83611bfa565b91506122c58261225e565b604082019050919050565b600060208201905081810360008301526122e9816122ad565b9050919050565b7f4f6e6c792044414f207469636b657420636f6e74726163742063616e206d696e60008201527f7420616e20496e506572736f6e5469636b65744e465421000000000000000000602082015250565b600061234c603783611bfa565b9150612357826122f0565b604082019050919050565b6000602082019050818103600083015261237b8161233f565b9050919050565b60006060820190506123976000830186611d36565b6123a46020830185611e4c565b81810360408301526123b68184611c46565b9050949350505050565b7f4552433732313a20696e76616c696420746f6b656e2049440000000000000000600082015250565b60006123f6601883611bfa565b9150612401826123c0565b602082019050919050565b60006020820190508181036000830152612425816123e9565b9050919050565b7f4552433732313a2061646472657373207a65726f206973206e6f74206120766160008201527f6c6964206f776e65720000000000000000000000000000000000000000000000602082015250565b6000612488602983611bfa565b91506124938261242c565b604082019050919050565b600060208201905081810360008301526124b78161247b565b9050919050565b600081905092915050565b60006124d482611bef565b6124de81856124be565b93506124ee818560208601611c0b565b80840191505092915050565b600061250682856124c9565b915061251282846124c9565b91508190509392505050565b7f4f776e61626c653a206e6577206f776e657220697320746865207a65726f206160008201527f6464726573730000000000000000000000000000000000000000000000000000602082015250565b600061257a602683611bfa565b91506125858261251e565b604082019050919050565b600060208201905081810360008301526125a98161256d565b9050919050565b7f4552433732313a207472616e736665722066726f6d20696e636f72726563742060008201527f6f776e6572000000000000000000000000000000000000000000000000000000602082015250565b600061260c602583611bfa565b9150612617826125b0565b604082019050919050565b6000602082019050818103600083015261263b816125ff565b9050919050565b7f4552433732313a207472616e7366657220746f20746865207a65726f2061646460008201527f7265737300000000000000000000000000000000000000000000000000000000602082015250565b600061269e602483611bfa565b91506126a982612642565b604082019050919050565b600060208201905081810360008301526126cd81612691565b9050919050565b7f4e487b7100000000000000000000000000000000000000000000000000000000600052601160045260246000fd5b600061270e82611ca1565b915061271983611ca1565b9250828203905081811115612731576127306126d4565b5b92915050565b600061274282611ca1565b915061274d83611ca1565b9250828201905080821115612765576127646126d4565b5b92915050565b7f4552433732313a206d696e7420746f20746865207a65726f2061646472657373600082015250565b60006127a1602083611bfa565b91506127ac8261276b565b602082019050919050565b600060208201905081810360008301526127d081612794565b9050919050565b7f4552433732313a20746f6b656e20616c7265616479206d696e74656400000000600082015250565b600061280d601c83611bfa565b9150612818826127d7565b602082019050919050565b6000602082019050818103600083015261283c81612800565b9050919050565b7f45524337323155524953746f726167653a2055524920736574206f66206e6f6e60008201527f6578697374656e7420746f6b656e000000000000000000000000000000000000602082015250565b600061289f602e83611bfa565b91506128aa82612843565b604082019050919050565b600060208201905081810360008301526128ce81612892565b9050919050565b60008190508160005260206000209050919050565b60006020601f8301049050919050565b600082821b905092915050565b6000600883026129377fffffffffffffffffffffffffffffffffffffffffffffffffffffffffffffffff826128fa565b61294186836128fa565b95508019841693508086168417925050509392505050565b6000819050919050565b600061297e61297961297484611ca1565b612959565b611ca1565b9050919050565b6000819050919050565b61299883612963565b6129ac6129a482612985565b848454612907565b825550505050565b600090565b6129c16129b4565b6129cc81848461298f565b505050565b5b818110156129f0576129e56000826129b9565b6001810190506129d2565b5050565b601f821115612a3557612a06816128d5565b612a0f846128ea565b81016020851015612a1e578190505b612a32612a2a856128ea565b8301826129d1565b50505b505050565b600082821c905092915050565b6000612a5860001984600802612a3a565b1980831691505092915050565b6000612a718383612a47565b9150826002028217905092915050565b612a8a82611bef565b67ffffffffffffffff811115612aa357612aa2611eec565b5b612aad8254612109565b612ab88282856129f4565b600060209050601f831160018114612aeb5760008415612ad9578287015190505b612ae38582612a65565b865550612b4b565b601f198416612af9866128d5565b60005b82811015612b2157848901518255600182019150602085019450602081019050612afc565b86831015612b3e5784890151612b3a601f891682612a47565b8355505b6001600288020188555050505b505050505050565b7f4f776e61626c653a2063616c6c6572206973206e6f7420746865206f776e6572600082015250565b6000612b89602083611bfa565b9150612b9482612b53565b602082019050919050565b60006020820190508181036000830152612bb881612b7c565b9050919050565b7f4552433732313a20617070726f766520746f2063616c6c657200000000000000600082015250565b6000612bf5601983611bfa565b9150612c0082612bbf565b602082019050919050565b60006020820190508181036000830152612c2481612be8565b9050919050565b7f4552433732313a207472616e7366657220746f206e6f6e20455243373231526560008201527f63656976657220696d706c656d656e7465720000000000000000000000000000602082015250565b6000612c87603283611bfa565b9150612c9282612c2b565b604082019050919050565b60006020820190508181036000830152612cb681612c7a565b9050919050565b600081519050919050565b600082825260208201905092915050565b6000612ce482612cbd565b612cee8185612cc8565b9350612cfe818560208601611c0b565b612d0781611c35565b840191505092915050565b6000608082019050612d276000830187611d36565b612d346020830186611d36565b612d416040830185611e4c565b8181036060830152612d538184612cd9565b905095945050505050565b600081519050612d6d81611b60565b92915050565b600060208284031215612d8957612d88611b2a565b5b6000612d9784828501612d5e565b91505092915050565b6000612dab82611ca1565b91507fffffffffffffffffffffffffffffffffffffffffffffffffffffffffffffffff8203612ddd57612ddc6126d4565b5b600182019050919050565b7f4e487b7100000000000000000000000000000000000000000000000000000000600052601260045260246000fd5b6000612e2282611ca1565b9150612e2d83611ca1565b925082612e3d57612e3c612de8565b5b828204905092915050565b6000612e5382611ca1565b9150612e5e83611ca1565b925082612e6e57612e6d612de8565b5b828206905092915050565b7f4e487b7100000000000000000000000000000000000000000000000000000000600052603260045260246000fdfe697066733a2f2f516d4e564a5073776e52774852657074614253725738315234336b685271444164554d6f5a4574646e684d346d6ea264697066735822122092319973b22946e599d8faed987532e1583d1af2678fc83dfebd3e8cbed4f97e64736f6c63430008110033",
  "linkReferences": {},
  "deployedLinkReferences": {}
}