{
    "_format": "hh-sol-artifact-1",
    "contractName": "InPersonTicketNFT",
    "sourceName": "contracts/InPersonTicketNFT.sol",
    "abi": [
        {
            "inputs": [
                {
                    "internalType": "address",
                    "name": "addr",
                    "type": "address"
                }
            ],
            "stateMutability": "nonpayable",
            "type": "constructor"
        },
        {
            "anonymous": false,
            "inputs": [
                {
                    "indexed": true,
                    "internalType": "address",
                    "name": "owner",
                    "type": "address"
                },
                {
                    "indexed": true,
                    "internalType": "address",
                    "name": "approved",
                    "type": "address"
                },
                {
                    "indexed": true,
                    "internalType": "uint256",
                    "name": "tokenId",
                    "type": "uint256"
                }
            ],
            "name": "Approval",
            "type": "event"
        },
        {
            "anonymous": false,
            "inputs": [
                {
                    "indexed": true,
                    "internalType": "address",
                    "name": "owner",
                    "type": "address"
                },
                {
                    "indexed": true,
                    "internalType": "address",
                    "name": "operator",
                    "type": "address"
                },
                {
                    "indexed": false,
                    "internalType": "bool",
                    "name": "approved",
                    "type": "bool"
                }
            ],
            "name": "ApprovalForAll",
            "type": "event"
        },
        {
            "anonymous": false,
            "inputs": [
                {
                    "indexed": false,
                    "internalType": "address",
                    "name": "recipient",
                    "type": "address"
                },
                {
                    "indexed": false,
                    "internalType": "uint256",
                    "name": "tokenId",
                    "type": "uint256"
                },
                {
                    "indexed": false,
                    "internalType": "string",
                    "name": "tokenURI",
                    "type": "string"
                }
            ],
            "name": "NftEvent",
            "type": "event"
        },
        {
            "anonymous": false,
            "inputs": [
                {
                    "indexed": true,
                    "internalType": "address",
                    "name": "previousOwner",
                    "type": "address"
                },
                {
                    "indexed": true,
                    "internalType": "address",
                    "name": "newOwner",
                    "type": "address"
                }
            ],
            "name": "OwnershipTransferred",
            "type": "event"
        },
        {
            "anonymous": false,
            "inputs": [
                {
                    "indexed": true,
                    "internalType": "address",
                    "name": "from",
                    "type": "address"
                },
                {
                    "indexed": true,
                    "internalType": "address",
                    "name": "to",
                    "type": "address"
                },
                {
                    "indexed": true,
                    "internalType": "uint256",
                    "name": "tokenId",
                    "type": "uint256"
                }
            ],
            "name": "Transfer",
            "type": "event"
        },
        {
            "inputs": [
                {
                    "internalType": "address",
                    "name": "to",
                    "type": "address"
                },
                {
                    "internalType": "uint256",
                    "name": "tokenId",
                    "type": "uint256"
                }
            ],
            "name": "approve",
            "outputs": [],
            "stateMutability": "nonpayable",
            "type": "function"
        },
        {
            "inputs": [
                {
                    "internalType": "address",
                    "name": "owner",
                    "type": "address"
                }
            ],
            "name": "balanceOf",
            "outputs": [
                {
                    "internalType": "uint256",
                    "name": "",
                    "type": "uint256"
                }
            ],
            "stateMutability": "view",
            "type": "function"
        },
        {
            "inputs": [
                {
                    "internalType": "uint256",
                    "name": "tokenId",
                    "type": "uint256"
                }
            ],
            "name": "getApproved",
            "outputs": [
                {
                    "internalType": "address",
                    "name": "",
                    "type": "address"
                }
            ],
            "stateMutability": "view",
            "type": "function"
        },
        {
            "inputs": [
                {
                    "internalType": "address",
                    "name": "owner",
                    "type": "address"
                },
                {
                    "internalType": "address",
                    "name": "operator",
                    "type": "address"
                }
            ],
            "name": "isApprovedForAll",
            "outputs": [
                {
                    "internalType": "bool",
                    "name": "",
                    "type": "bool"
                }
            ],
            "stateMutability": "view",
            "type": "function"
        },
        {
            "inputs": [
                {
                    "internalType": "address",
                    "name": "recipient",
                    "type": "address"
                }
            ],
            "name": "mintNFT",
            "outputs": [
                {
                    "internalType": "uint256",
                    "name": "",
                    "type": "uint256"
                }
            ],
            "stateMutability": "nonpayable",
            "type": "function"
        },
        {
            "inputs": [],
            "name": "name",
            "outputs": [
                {
                    "internalType": "string",
                    "name": "",
                    "type": "string"
                }
            ],
            "stateMutability": "view",
            "type": "function"
        },
        {
            "inputs": [],
            "name": "owner",
            "outputs": [
                {
                    "internalType": "address",
                    "name": "",
                    "type": "address"
                }
            ],
            "stateMutability": "view",
            "type": "function"
        },
        {
            "inputs": [
                {
                    "internalType": "uint256",
                    "name": "tokenId",
                    "type": "uint256"
                }
            ],
            "name": "ownerOf",
            "outputs": [
                {
                    "internalType": "address",
                    "name": "",
                    "type": "address"
                }
            ],
            "stateMutability": "view",
            "type": "function"
        },
        {
            "inputs": [],
            "name": "renounceOwnership",
            "outputs": [],
            "stateMutability": "nonpayable",
            "type": "function"
        },
        {
            "inputs": [
                {
                    "internalType": "address",
                    "name": "from",
                    "type": "address"
                },
                {
                    "internalType": "address",
                    "name": "to",
                    "type": "address"
                },
                {
                    "internalType": "uint256",
                    "name": "tokenId",
                    "type": "uint256"
                }
            ],
            "name": "safeTransferFrom",
            "outputs": [],
            "stateMutability": "nonpayable",
            "type": "function"
        },
        {
            "inputs": [
                {
                    "internalType": "address",
                    "name": "from",
                    "type": "address"
                },
                {
                    "internalType": "address",
                    "name": "to",
                    "type": "address"
                },
                {
                    "internalType": "uint256",
                    "name": "tokenId",
                    "type": "uint256"
                },
                {
                    "internalType": "bytes",
                    "name": "data",
                    "type": "bytes"
                }
            ],
            "name": "safeTransferFrom",
            "outputs": [],
            "stateMutability": "nonpayable",
            "type": "function"
        },
        {
            "inputs": [
                {
                    "internalType": "address",
                    "name": "operator",
                    "type": "address"
                },
                {
                    "internalType": "bool",
                    "name": "approved",
                    "type": "bool"
                }
            ],
            "name": "setApprovalForAll",
            "outputs": [],
            "stateMutability": "nonpayable",
            "type": "function"
        },
        {
            "inputs": [
                {
                    "internalType": "bytes4",
                    "name": "interfaceId",
                    "type": "bytes4"
                }
            ],
            "name": "supportsInterface",
            "outputs": [
                {
                    "internalType": "bool",
                    "name": "",
                    "type": "bool"
                }
            ],
            "stateMutability": "view",
            "type": "function"
        },
        {
            "inputs": [],
            "name": "symbol",
            "outputs": [
                {
                    "internalType": "string",
                    "name": "",
                    "type": "string"
                }
            ],
            "stateMutability": "view",
            "type": "function"
        },
        {
            "inputs": [
                {
                    "internalType": "uint256",
                    "name": "tokenId",
                    "type": "uint256"
                }
            ],
            "name": "tokenURI",
            "outputs": [
                {
                    "internalType": "string",
                    "name": "",
                    "type": "string"
                }
            ],
            "stateMutability": "view",
            "type": "function"
        },
        {
            "inputs": [
                {
                    "internalType": "address",
                    "name": "from",
                    "type": "address"
                },
                {
                    "internalType": "address",
                    "name": "to",
                    "type": "address"
                },
                {
                    "internalType": "uint256",
                    "name": "tokenId",
                    "type": "uint256"
                }
            ],
            "name": "transferFrom",
            "outputs": [],
            "stateMutability": "nonpayable",
            "type": "function"
        },
        {
            "inputs": [
                {
                    "internalType": "address",
                    "name": "newOwner",
                    "type": "address"
                }
            ],
            "name": "transferOwnership",
            "outputs": [],
            "stateMutability": "nonpayable",
            "type": "function"
        }
    ],
    "bytecode": "0x60806040523480156200001157600080fd5b506040516200349b3803806200349b833981810160405281019062000037919062000269565b6040518060400160405280601181526020017f496e506572736f6e5469636b65744e46540000000000000000000000000000008152506040518060400160405280600381526020017f4e465400000000000000000000000000000000000000000000000000000000008152508160009081620000b4919062000515565b508060019081620000c6919062000515565b505050620000e9620000dd6200013160201b60201c565b6200013960201b60201c565b80600960006101000a81548173ffffffffffffffffffffffffffffffffffffffff021916908373ffffffffffffffffffffffffffffffffffffffff16021790555050620005fc565b600033905090565b6000600760009054906101000a900473ffffffffffffffffffffffffffffffffffffffff16905081600760006101000a81548173ffffffffffffffffffffffffffffffffffffffff021916908373ffffffffffffffffffffffffffffffffffffffff1602179055508173ffffffffffffffffffffffffffffffffffffffff168173ffffffffffffffffffffffffffffffffffffffff167f8be0079c531659141344cd1fd0a4f28419497f9722a3daafe3b4186f6b6457e060405160405180910390a35050565b600080fd5b600073ffffffffffffffffffffffffffffffffffffffff82169050919050565b6000620002318262000204565b9050919050565b620002438162000224565b81146200024f57600080fd5b50565b600081519050620002638162000238565b92915050565b600060208284031215620002825762000281620001ff565b5b6000620002928482850162000252565b91505092915050565b600081519050919050565b7f4e487b7100000000000000000000000000000000000000000000000000000000600052604160045260246000fd5b7f4e487b7100000000000000000000000000000000000000000000000000000000600052602260045260246000fd5b600060028204905060018216806200031d57607f821691505b602082108103620003335762000332620002d5565b5b50919050565b60008190508160005260206000209050919050565b60006020601f8301049050919050565b600082821b905092915050565b6000600883026200039d7fffffffffffffffffffffffffffffffffffffffffffffffffffffffffffffffff826200035e565b620003a986836200035e565b95508019841693508086168417925050509392505050565b6000819050919050565b6000819050919050565b6000620003f6620003f0620003ea84620003c1565b620003cb565b620003c1565b9050919050565b6000819050919050565b6200041283620003d5565b6200042a6200042182620003fd565b8484546200036b565b825550505050565b600090565b6200044162000432565b6200044e81848462000407565b505050565b5b8181101562000476576200046a60008262000437565b60018101905062000454565b5050565b601f821115620004c5576200048f8162000339565b6200049a846200034e565b81016020851015620004aa578190505b620004c2620004b9856200034e565b83018262000453565b50505b505050565b600082821c905092915050565b6000620004ea60001984600802620004ca565b1980831691505092915050565b6000620005058383620004d7565b9150826002028217905092915050565b62000520826200029b565b67ffffffffffffffff8111156200053c576200053b620002a6565b5b62000548825462000304565b620005558282856200047a565b600060209050601f8311600181146200058d576000841562000578578287015190505b620005848582620004f7565b865550620005f4565b601f1984166200059d8662000339565b60005b82811015620005c757848901518255600182019150602085019450602081019050620005a0565b86831015620005e75784890151620005e3601f891682620004d7565b8355505b6001600288020188555050505b505050505050565b612e8f806200060c6000396000f3fe608060405234801561001057600080fd5b506004361061010b5760003560e01c806370a08231116100a2578063a22cb46511610071578063a22cb465146102b8578063b88d4fde146102d4578063c87b56dd146102f0578063e985e9c514610320578063f2fde38b146103505761010b565b806370a0823114610242578063715018a6146102725780638da5cb5b1461027c57806395d89b411461029a5761010b565b806323b872dd116100de57806323b872dd146101aa57806342842e0e146101c657806354ba0f27146101e25780636352211e146102125761010b565b806301ffc9a71461011057806306fdde0314610140578063081812fc1461015e578063095ea7b31461018e575b600080fd5b61012a60048036038101906101259190611b08565b61036c565b6040516101379190611b50565b60405180910390f35b61014861044e565b6040516101559190611bfb565b60405180910390f35b61017860048036038101906101739190611c53565b6104e0565b6040516101859190611cc1565b60405180910390f35b6101a860048036038101906101a39190611d08565b610526565b005b6101c460048036038101906101bf9190611d48565b61063d565b005b6101e060048036038101906101db9190611d48565b61069d565b005b6101fc60048036038101906101f79190611d9b565b6106bd565b6040516102099190611dd7565b60405180910390f35b61022c60048036038101906102279190611c53565b6107dd565b6040516102399190611cc1565b60405180910390f35b61025c60048036038101906102579190611d9b565b61088e565b6040516102699190611dd7565b60405180910390f35b61027a610945565b005b610284610959565b6040516102919190611cc1565b60405180910390f35b6102a2610983565b6040516102af9190611bfb565b60405180910390f35b6102d260048036038101906102cd9190611e1e565b610a15565b005b6102ee60048036038101906102e99190611f93565b610a2b565b005b61030a60048036038101906103059190611c53565b610a8d565b6040516103179190611bfb565b60405180910390f35b61033a60048036038101906103359190612016565b610b9f565b6040516103479190611b50565b60405180910390f35b61036a60048036038101906103659190611d9b565b610c33565b005b60007f80ac58cd000000000000000000000000000000000000000000000000000000007bffffffffffffffffffffffffffffffffffffffffffffffffffffffff1916827bffffffffffffffffffffffffffffffffffffffffffffffffffffffff1916148061043757507f5b5e139f000000000000000000000000000000000000000000000000000000007bffffffffffffffffffffffffffffffffffffffffffffffffffffffff1916827bffffffffffffffffffffffffffffffffffffffffffffffffffffffff1916145b80610447575061044682610cb6565b5b9050919050565b60606000805461045d90612085565b80601f016020809104026020016040519081016040528092919081815260200182805461048990612085565b80156104d65780601f106104ab576101008083540402835291602001916104d6565b820191906000526020600020905b8154815290600101906020018083116104b957829003601f168201915b5050505050905090565b60006104eb82610d20565b6004600083815260200190815260200160002060009054906101000a900473ffffffffffffffffffffffffffffffffffffffff169050919050565b6000610531826107dd565b90508073ffffffffffffffffffffffffffffffffffffffff168373ffffffffffffffffffffffffffffffffffffffff16036105a1576040517f08c379a000000000000000000000000000000000000000000000000000000000815260040161059890612128565b60405180910390fd5b8073ffffffffffffffffffffffffffffffffffffffff166105c0610d6b565b73ffffffffffffffffffffffffffffffffffffffff1614806105ef57506105ee816105e9610d6b565b610b9f565b5b61062e576040517f08c379a0000000000000000000000000000000000000000000000000000000008152600401610625906121ba565b60405180910390fd5b6106388383610d73565b505050565b61064e610648610d6b565b82610e2c565b61068d576040517f08c379a00000000000000000000000000000000000000000000000000000000081526004016106849061224c565b60405180910390fd5b610698838383610ec1565b505050565b6106b883838360405180602001604052806000815250610a2b565b505050565b6000600960009054906101000a900473ffffffffffffffffffffffffffffffffffffffff1673ffffffffffffffffffffffffffffffffffffffff163373ffffffffffffffffffffffffffffffffffffffff161461074f576040517f08c379a0000000000000000000000000000000000000000000000000000000008152600401610746906122de565b60405180910390fd5b6107596008611127565b6000610765600861113d565b9050610771838261114b565b6000604051806060016040528060358152602001612e256035913990506107988282611324565b7f78cd0b8cb283c9e59e1ce3924f0d16f7b91f4a1ef2e62744e3934f9407229b2a8483836040516107cb939291906122fe565b60405180910390a18192505050919050565b6000806002600084815260200190815260200160002060009054906101000a900473ffffffffffffffffffffffffffffffffffffffff169050600073ffffffffffffffffffffffffffffffffffffffff168173ffffffffffffffffffffffffffffffffffffffff1603610885576040517f08c379a000000000000000000000000000000000000000000000000000000000815260040161087c90612388565b60405180910390fd5b80915050919050565b60008073ffffffffffffffffffffffffffffffffffffffff168273ffffffffffffffffffffffffffffffffffffffff16036108fe576040517f08c379a00000000000000000000000000000000000000000000000000000000081526004016108f59061241a565b60405180910390fd5b600360008373ffffffffffffffffffffffffffffffffffffffff1673ffffffffffffffffffffffffffffffffffffffff168152602001908152602001600020549050919050565b61094d611391565b610957600061140f565b565b6000600760009054906101000a900473ffffffffffffffffffffffffffffffffffffffff16905090565b60606001805461099290612085565b80601f01602080910402602001604051908101604052809291908181526020018280546109be90612085565b8015610a0b5780601f106109e057610100808354040283529160200191610a0b565b820191906000526020600020905b8154815290600101906020018083116109ee57829003601f168201915b5050505050905090565b610a27610a20610d6b565b83836114d5565b5050565b610a3c610a36610d6b565b83610e2c565b610a7b576040517f08c379a0000000000000000000000000000000000000000000000000000000008152600401610a729061224c565b60405180910390fd5b610a8784848484611641565b50505050565b6060610a9882610d20565b6000600660008481526020019081526020016000208054610ab890612085565b80601f0160208091040260200160405190810160405280929190818152602001828054610ae490612085565b8015610b315780601f10610b0657610100808354040283529160200191610b31565b820191906000526020600020905b815481529060010190602001808311610b1457829003601f168201915b505050505090506000610b4261169d565b90506000815103610b57578192505050610b9a565b600082511115610b8c578082604051602001610b74929190612476565b60405160208183030381529060405292505050610b9a565b610b95846116b4565b925050505b919050565b6000600560008473ffffffffffffffffffffffffffffffffffffffff1673ffffffffffffffffffffffffffffffffffffffff16815260200190815260200160002060008373ffffffffffffffffffffffffffffffffffffffff1673ffffffffffffffffffffffffffffffffffffffff16815260200190815260200160002060009054906101000a900460ff16905092915050565b610c3b611391565b600073ffffffffffffffffffffffffffffffffffffffff168173ffffffffffffffffffffffffffffffffffffffff1603610caa576040517f08c379a0000000000000000000000000000000000000000000000000000000008152600401610ca19061250c565b60405180910390fd5b610cb38161140f565b50565b60007f01ffc9a7000000000000000000000000000000000000000000000000000000007bffffffffffffffffffffffffffffffffffffffffffffffffffffffff1916827bffffffffffffffffffffffffffffffffffffffffffffffffffffffff1916149050919050565b610d298161171c565b610d68576040517f08c379a0000000000000000000000000000000000000000000000000000000008152600401610d5f90612388565b60405180910390fd5b50565b600033905090565b816004600083815260200190815260200160002060006101000a81548173ffffffffffffffffffffffffffffffffffffffff021916908373ffffffffffffffffffffffffffffffffffffffff160217905550808273ffffffffffffffffffffffffffffffffffffffff16610de6836107dd565b73ffffffffffffffffffffffffffffffffffffffff167f8c5be1e5ebec7d5bd14f71427d1e84f3dd0314c0f7b2291e5b200ac8c7c3b92560405160405180910390a45050565b600080610e38836107dd565b90508073ffffffffffffffffffffffffffffffffffffffff168473ffffffffffffffffffffffffffffffffffffffff161480610e7a5750610e798185610b9f565b5b80610eb857508373ffffffffffffffffffffffffffffffffffffffff16610ea0846104e0565b73ffffffffffffffffffffffffffffffffffffffff16145b91505092915050565b8273ffffffffffffffffffffffffffffffffffffffff16610ee1826107dd565b73ffffffffffffffffffffffffffffffffffffffff1614610f37576040517f08c379a0000000000000000000000000000000000000000000000000000000008152600401610f2e9061259e565b60405180910390fd5b600073ffffffffffffffffffffffffffffffffffffffff168273ffffffffffffffffffffffffffffffffffffffff1603610fa6576040517f08c379a0000000000000000000000000000000000000000000000000000000008152600401610f9d90612630565b60405180910390fd5b610fb1838383611788565b610fbc600082610d73565b6001600360008573ffffffffffffffffffffffffffffffffffffffff1673ffffffffffffffffffffffffffffffffffffffff168152602001908152602001600020600082825461100c919061267f565b925050819055506001600360008473ffffffffffffffffffffffffffffffffffffffff1673ffffffffffffffffffffffffffffffffffffffff168152602001908152602001600020600082825461106391906126b3565b92505081905550816002600083815260200190815260200160002060006101000a81548173ffffffffffffffffffffffffffffffffffffffff021916908373ffffffffffffffffffffffffffffffffffffffff160217905550808273ffffffffffffffffffffffffffffffffffffffff168473ffffffffffffffffffffffffffffffffffffffff167fddf252ad1be2c89b69c2b068fc378daa952ba7f163c4a11628f55a4df523b3ef60405160405180910390a461112283838361178d565b505050565b6001816000016000828254019250508190555050565b600081600001549050919050565b600073ffffffffffffffffffffffffffffffffffffffff168273ffffffffffffffffffffffffffffffffffffffff16036111ba576040517f08c379a00000000000000000000000000000000000000000000000000000000081526004016111b190612733565b60405180910390fd5b6111c38161171c565b15611203576040517f08c379a00000000000000000000000000000000000000000000000000000000081526004016111fa9061279f565b60405180910390fd5b61120f60008383611788565b6001600360008473ffffffffffffffffffffffffffffffffffffffff1673ffffffffffffffffffffffffffffffffffffffff168152602001908152602001600020600082825461125f91906126b3565b92505081905550816002600083815260200190815260200160002060006101000a81548173ffffffffffffffffffffffffffffffffffffffff021916908373ffffffffffffffffffffffffffffffffffffffff160217905550808273ffffffffffffffffffffffffffffffffffffffff16600073ffffffffffffffffffffffffffffffffffffffff167fddf252ad1be2c89b69c2b068fc378daa952ba7f163c4a11628f55a4df523b3ef60405160405180910390a46113206000838361178d565b5050565b61132d8261171c565b61136c576040517f08c379a000000000000000000000000000000000000000000000000000000000815260040161136390612831565b60405180910390fd5b8060066000848152602001908152602001600020908161138c91906129fd565b505050565b611399610d6b565b73ffffffffffffffffffffffffffffffffffffffff166113b7610959565b73ffffffffffffffffffffffffffffffffffffffff161461140d576040517f08c379a000000000000000000000000000000000000000000000000000000000815260040161140490612b1b565b60405180910390fd5b565b6000600760009054906101000a900473ffffffffffffffffffffffffffffffffffffffff16905081600760006101000a81548173ffffffffffffffffffffffffffffffffffffffff021916908373ffffffffffffffffffffffffffffffffffffffff1602179055508173ffffffffffffffffffffffffffffffffffffffff168173ffffffffffffffffffffffffffffffffffffffff167f8be0079c531659141344cd1fd0a4f28419497f9722a3daafe3b4186f6b6457e060405160405180910390a35050565b8173ffffffffffffffffffffffffffffffffffffffff168373ffffffffffffffffffffffffffffffffffffffff1603611543576040517f08c379a000000000000000000000000000000000000000000000000000000000815260040161153a90612b87565b60405180910390fd5b80600560008573ffffffffffffffffffffffffffffffffffffffff1673ffffffffffffffffffffffffffffffffffffffff16815260200190815260200160002060008473ffffffffffffffffffffffffffffffffffffffff1673ffffffffffffffffffffffffffffffffffffffff16815260200190815260200160002060006101000a81548160ff0219169083151502179055508173ffffffffffffffffffffffffffffffffffffffff168373ffffffffffffffffffffffffffffffffffffffff167f17307eab39ab6107e8899845ad3d59bd9653f200f220920489ca2b5937696c31836040516116349190611b50565b60405180910390a3505050565b61164c848484610ec1565b61165884848484611792565b611697576040517f08c379a000000000000000000000000000000000000000000000000000000000815260040161168e90612c19565b60405180910390fd5b50505050565b606060405180602001604052806000815250905090565b60606116bf82610d20565b60006116c961169d565b905060008151116116e95760405180602001604052806000815250611714565b806116f384611919565b604051602001611704929190612476565b6040516020818303038152906040525b915050919050565b60008073ffffffffffffffffffffffffffffffffffffffff166002600084815260200190815260200160002060009054906101000a900473ffffffffffffffffffffffffffffffffffffffff1673ffffffffffffffffffffffffffffffffffffffff1614159050919050565b505050565b505050565b60006117b38473ffffffffffffffffffffffffffffffffffffffff16611a79565b1561190c578373ffffffffffffffffffffffffffffffffffffffff1663150b7a026117dc610d6b565b8786866040518563ffffffff1660e01b81526004016117fe9493929190612c8e565b6020604051808303816000875af192505050801561183a57506040513d601f19601f820116820180604052508101906118379190612cef565b60015b6118bc573d806000811461186a576040519150601f19603f3d011682016040523d82523d6000602084013e61186f565b606091505b5060008151036118b4576040517f08c379a00000000000000000000000000000000000000000000000000000000081526004016118ab90612c19565b60405180910390fd5b805181602001fd5b63150b7a0260e01b7bffffffffffffffffffffffffffffffffffffffffffffffffffffffff1916817bffffffffffffffffffffffffffffffffffffffffffffffffffffffff191614915050611911565b600190505b949350505050565b606060008203611960576040518060400160405280600181526020017f30000000000000000000000000000000000000000000000000000000000000008152509050611a74565b600082905060005b6000821461199257808061197b90612d1c565b915050600a8261198b9190612d93565b9150611968565b60008167ffffffffffffffff8111156119ae576119ad611e68565b5b6040519080825280601f01601f1916602001820160405280156119e05781602001600182028036833780820191505090505b5090505b60008514611a6d576001826119f9919061267f565b9150600a85611a089190612dc4565b6030611a1491906126b3565b60f81b818381518110611a2a57611a29612df5565b5b60200101907effffffffffffffffffffffffffffffffffffffffffffffffffffffffffffff1916908160001a905350600a85611a669190612d93565b94506119e4565b8093505050505b919050565b6000808273ffffffffffffffffffffffffffffffffffffffff163b119050919050565b6000604051905090565b600080fd5b600080fd5b60007fffffffff0000000000000000000000000000000000000000000000000000000082169050919050565b611ae581611ab0565b8114611af057600080fd5b50565b600081359050611b0281611adc565b92915050565b600060208284031215611b1e57611b1d611aa6565b5b6000611b2c84828501611af3565b91505092915050565b60008115159050919050565b611b4a81611b35565b82525050565b6000602082019050611b656000830184611b41565b92915050565b600081519050919050565b600082825260208201905092915050565b60005b83811015611ba5578082015181840152602081019050611b8a565b60008484015250505050565b6000601f19601f8301169050919050565b6000611bcd82611b6b565b611bd78185611b76565b9350611be7818560208601611b87565b611bf081611bb1565b840191505092915050565b60006020820190508181036000830152611c158184611bc2565b905092915050565b6000819050919050565b611c3081611c1d565b8114611c3b57600080fd5b50565b600081359050611c4d81611c27565b92915050565b600060208284031215611c6957611c68611aa6565b5b6000611c7784828501611c3e565b91505092915050565b600073ffffffffffffffffffffffffffffffffffffffff82169050919050565b6000611cab82611c80565b9050919050565b611cbb81611ca0565b82525050565b6000602082019050611cd66000830184611cb2565b92915050565b611ce581611ca0565b8114611cf057600080fd5b50565b600081359050611d0281611cdc565b92915050565b60008060408385031215611d1f57611d1e611aa6565b5b6000611d2d85828601611cf3565b9250506020611d3e85828601611c3e565b9150509250929050565b600080600060608486031215611d6157611d60611aa6565b5b6000611d6f86828701611cf3565b9350506020611d8086828701611cf3565b9250506040611d9186828701611c3e565b9150509250925092565b600060208284031215611db157611db0611aa6565b5b6000611dbf84828501611cf3565b91505092915050565b611dd181611c1d565b82525050565b6000602082019050611dec6000830184611dc8565b92915050565b611dfb81611b35565b8114611e0657600080fd5b50565b600081359050611e1881611df2565b92915050565b60008060408385031215611e3557611e34611aa6565b5b6000611e4385828601611cf3565b9250506020611e5485828601611e09565b9150509250929050565b600080fd5b600080fd5b7f4e487b7100000000000000000000000000000000000000000000000000000000600052604160045260246000fd5b611ea082611bb1565b810181811067ffffffffffffffff82111715611ebf57611ebe611e68565b5b80604052505050565b6000611ed2611a9c565b9050611ede8282611e97565b919050565b600067ffffffffffffffff821115611efe57611efd611e68565b5b611f0782611bb1565b9050602081019050919050565b82818337600083830152505050565b6000611f36611f3184611ee3565b611ec8565b905082815260208101848484011115611f5257611f51611e63565b5b611f5d848285611f14565b509392505050565b600082601f830112611f7a57611f79611e5e565b5b8135611f8a848260208601611f23565b91505092915050565b60008060008060808587031215611fad57611fac611aa6565b5b6000611fbb87828801611cf3565b9450506020611fcc87828801611cf3565b9350506040611fdd87828801611c3e565b925050606085013567ffffffffffffffff811115611ffe57611ffd611aab565b5b61200a87828801611f65565b91505092959194509250565b6000806040838503121561202d5761202c611aa6565b5b600061203b85828601611cf3565b925050602061204c85828601611cf3565b9150509250929050565b7f4e487b7100000000000000000000000000000000000000000000000000000000600052602260045260246000fd5b6000600282049050600182168061209d57607f821691505b6020821081036120b0576120af612056565b5b50919050565b7f4552433732313a20617070726f76616c20746f2063757272656e74206f776e6560008201527f7200000000000000000000000000000000000000000000000000000000000000602082015250565b6000612112602183611b76565b915061211d826120b6565b604082019050919050565b6000602082019050818103600083015261214181612105565b9050919050565b7f4552433732313a20617070726f76652063616c6c6572206973206e6f7420746f60008201527f6b656e206f776e6572206e6f7220617070726f76656420666f7220616c6c0000602082015250565b60006121a4603e83611b76565b91506121af82612148565b604082019050919050565b600060208201905081810360008301526121d381612197565b9050919050565b7f4552433732313a2063616c6c6572206973206e6f7420746f6b656e206f776e6560008201527f72206e6f7220617070726f766564000000000000000000000000000000000000602082015250565b6000612236602e83611b76565b9150612241826121da565b604082019050919050565b6000602082019050818103600083015261226581612229565b9050919050565b7f4f6e6c792044414f207469636b657420636f6e74726163742063616e206d696e60008201527f7420616e20496e506572736f6e5469636b65744e465421000000000000000000602082015250565b60006122c8603783611b76565b91506122d38261226c565b604082019050919050565b600060208201905081810360008301526122f7816122bb565b9050919050565b60006060820190506123136000830186611cb2565b6123206020830185611dc8565b81810360408301526123328184611bc2565b9050949350505050565b7f4552433732313a20696e76616c696420746f6b656e2049440000000000000000600082015250565b6000612372601883611b76565b915061237d8261233c565b602082019050919050565b600060208201905081810360008301526123a181612365565b9050919050565b7f4552433732313a2061646472657373207a65726f206973206e6f74206120766160008201527f6c6964206f776e65720000000000000000000000000000000000000000000000602082015250565b6000612404602983611b76565b915061240f826123a8565b604082019050919050565b60006020820190508181036000830152612433816123f7565b9050919050565b600081905092915050565b600061245082611b6b565b61245a818561243a565b935061246a818560208601611b87565b80840191505092915050565b60006124828285612445565b915061248e8284612445565b91508190509392505050565b7f4f776e61626c653a206e6577206f776e657220697320746865207a65726f206160008201527f6464726573730000000000000000000000000000000000000000000000000000602082015250565b60006124f6602683611b76565b91506125018261249a565b604082019050919050565b60006020820190508181036000830152612525816124e9565b9050919050565b7f4552433732313a207472616e736665722066726f6d20696e636f72726563742060008201527f6f776e6572000000000000000000000000000000000000000000000000000000602082015250565b6000612588602583611b76565b91506125938261252c565b604082019050919050565b600060208201905081810360008301526125b78161257b565b9050919050565b7f4552433732313a207472616e7366657220746f20746865207a65726f2061646460008201527f7265737300000000000000000000000000000000000000000000000000000000602082015250565b600061261a602483611b76565b9150612625826125be565b604082019050919050565b600060208201905081810360008301526126498161260d565b9050919050565b7f4e487b7100000000000000000000000000000000000000000000000000000000600052601160045260246000fd5b600061268a82611c1d565b915061269583611c1d565b92508282039050818111156126ad576126ac612650565b5b92915050565b60006126be82611c1d565b91506126c983611c1d565b92508282019050808211156126e1576126e0612650565b5b92915050565b7f4552433732313a206d696e7420746f20746865207a65726f2061646472657373600082015250565b600061271d602083611b76565b9150612728826126e7565b602082019050919050565b6000602082019050818103600083015261274c81612710565b9050919050565b7f4552433732313a20746f6b656e20616c7265616479206d696e74656400000000600082015250565b6000612789601c83611b76565b915061279482612753565b602082019050919050565b600060208201905081810360008301526127b88161277c565b9050919050565b7f45524337323155524953746f726167653a2055524920736574206f66206e6f6e60008201527f6578697374656e7420746f6b656e000000000000000000000000000000000000602082015250565b600061281b602e83611b76565b9150612826826127bf565b604082019050919050565b6000602082019050818103600083015261284a8161280e565b9050919050565b60008190508160005260206000209050919050565b60006020601f8301049050919050565b600082821b905092915050565b6000600883026128b37fffffffffffffffffffffffffffffffffffffffffffffffffffffffffffffffff82612876565b6128bd8683612876565b95508019841693508086168417925050509392505050565b6000819050919050565b60006128fa6128f56128f084611c1d565b6128d5565b611c1d565b9050919050565b6000819050919050565b612914836128df565b61292861292082612901565b848454612883565b825550505050565b600090565b61293d612930565b61294881848461290b565b505050565b5b8181101561296c57612961600082612935565b60018101905061294e565b5050565b601f8211156129b15761298281612851565b61298b84612866565b8101602085101561299a578190505b6129ae6129a685612866565b83018261294d565b50505b505050565b600082821c905092915050565b60006129d4600019846008026129b6565b1980831691505092915050565b60006129ed83836129c3565b9150826002028217905092915050565b612a0682611b6b565b67ffffffffffffffff811115612a1f57612a1e611e68565b5b612a298254612085565b612a34828285612970565b600060209050601f831160018114612a675760008415612a55578287015190505b612a5f85826129e1565b865550612ac7565b601f198416612a7586612851565b60005b82811015612a9d57848901518255600182019150602085019450602081019050612a78565b86831015612aba5784890151612ab6601f8916826129c3565b8355505b6001600288020188555050505b505050505050565b7f4f776e61626c653a2063616c6c6572206973206e6f7420746865206f776e6572600082015250565b6000612b05602083611b76565b9150612b1082612acf565b602082019050919050565b60006020820190508181036000830152612b3481612af8565b9050919050565b7f4552433732313a20617070726f766520746f2063616c6c657200000000000000600082015250565b6000612b71601983611b76565b9150612b7c82612b3b565b602082019050919050565b60006020820190508181036000830152612ba081612b64565b9050919050565b7f4552433732313a207472616e7366657220746f206e6f6e20455243373231526560008201527f63656976657220696d706c656d656e7465720000000000000000000000000000602082015250565b6000612c03603283611b76565b9150612c0e82612ba7565b604082019050919050565b60006020820190508181036000830152612c3281612bf6565b9050919050565b600081519050919050565b600082825260208201905092915050565b6000612c6082612c39565b612c6a8185612c44565b9350612c7a818560208601611b87565b612c8381611bb1565b840191505092915050565b6000608082019050612ca36000830187611cb2565b612cb06020830186611cb2565b612cbd6040830185611dc8565b8181036060830152612ccf8184612c55565b905095945050505050565b600081519050612ce981611adc565b92915050565b600060208284031215612d0557612d04611aa6565b5b6000612d1384828501612cda565b91505092915050565b6000612d2782611c1d565b91507fffffffffffffffffffffffffffffffffffffffffffffffffffffffffffffffff8203612d5957612d58612650565b5b600182019050919050565b7f4e487b7100000000000000000000000000000000000000000000000000000000600052601260045260246000fd5b6000612d9e82611c1d565b9150612da983611c1d565b925082612db957612db8612d64565b5b828204905092915050565b6000612dcf82611c1d565b9150612dda83611c1d565b925082612dea57612de9612d64565b5b828206905092915050565b7f4e487b7100000000000000000000000000000000000000000000000000000000600052603260045260246000fdfe697066733a2f2f516d4e564a5073776e52774852657074614253725738315234336b685271444164554d6f5a4574646e684d346d6ea264697066735822122009f9149aa15b27b292056154155b751be5f609426c82b02f224d4ca904190a4d64736f6c63430008110033",
    "linkReferences": {},
    "deployedLinkReferences": {}
}