{
  "_format": "hh-sol-artifact-1",
  "contractName": "InPersonTicketNFT",
  "sourceName": "contracts/InPersonTicketNFT.sol",
  "abi": [
    {
      "inputs": [
        {
          "internalType": "address",
          "name": "addr",
          "type": "address"
        }
      ],
      "stateMutability": "nonpayable",
      "type": "constructor"
    },
    {
      "anonymous": false,
      "inputs": [
        {
          "indexed": true,
          "internalType": "address",
          "name": "owner",
          "type": "address"
        },
        {
          "indexed": true,
          "internalType": "address",
          "name": "approved",
          "type": "address"
        },
        {
          "indexed": true,
          "internalType": "uint256",
          "name": "tokenId",
          "type": "uint256"
        }
      ],
      "name": "Approval",
      "type": "event"
    },
    {
      "anonymous": false,
      "inputs": [
        {
          "indexed": true,
          "internalType": "address",
          "name": "owner",
          "type": "address"
        },
        {
          "indexed": true,
          "internalType": "address",
          "name": "operator",
          "type": "address"
        },
        {
          "indexed": false,
          "internalType": "bool",
          "name": "approved",
          "type": "bool"
        }
      ],
      "name": "ApprovalForAll",
      "type": "event"
    },
    {
      "anonymous": false,
      "inputs": [
        {
          "indexed": false,
          "internalType": "address",
          "name": "recipient",
          "type": "address"
        },
        {
          "indexed": false,
          "internalType": "uint256",
          "name": "tokenId",
          "type": "uint256"
        },
        {
          "indexed": false,
          "internalType": "string",
          "name": "tokenURI",
          "type": "string"
        }
      ],
      "name": "NftEvent",
      "type": "event"
    },
    {
      "anonymous": false,
      "inputs": [
        {
          "indexed": true,
          "internalType": "address",
          "name": "previousOwner",
          "type": "address"
        },
        {
          "indexed": true,
          "internalType": "address",
          "name": "newOwner",
          "type": "address"
        }
      ],
      "name": "OwnershipTransferred",
      "type": "event"
    },
    {
      "anonymous": false,
      "inputs": [
        {
          "indexed": true,
          "internalType": "address",
          "name": "from",
          "type": "address"
        },
        {
          "indexed": true,
          "internalType": "address",
          "name": "to",
          "type": "address"
        },
        {
          "indexed": true,
          "internalType": "uint256",
          "name": "tokenId",
          "type": "uint256"
        }
      ],
      "name": "Transfer",
      "type": "event"
    },
    {
      "inputs": [],
      "name": "DaoTicketAddress",
      "outputs": [
        {
          "internalType": "address",
          "name": "",
          "type": "address"
        }
      ],
      "stateMutability": "view",
      "type": "function"
    },
    {
      "inputs": [
        {
          "internalType": "address",
          "name": "to",
          "type": "address"
        },
        {
          "internalType": "uint256",
          "name": "tokenId",
          "type": "uint256"
        }
      ],
      "name": "approve",
      "outputs": [],
      "stateMutability": "nonpayable",
      "type": "function"
    },
    {
      "inputs": [
        {
          "internalType": "address",
          "name": "owner",
          "type": "address"
        }
      ],
      "name": "balanceOf",
      "outputs": [
        {
          "internalType": "uint256",
          "name": "",
          "type": "uint256"
        }
      ],
      "stateMutability": "view",
      "type": "function"
    },
    {
      "inputs": [
        {
          "internalType": "uint256",
          "name": "tokenId",
          "type": "uint256"
        }
      ],
      "name": "getApproved",
      "outputs": [
        {
          "internalType": "address",
          "name": "",
          "type": "address"
        }
      ],
      "stateMutability": "view",
      "type": "function"
    },
    {
      "inputs": [
        {
          "internalType": "address",
          "name": "owner",
          "type": "address"
        },
        {
          "internalType": "address",
          "name": "operator",
          "type": "address"
        }
      ],
      "name": "isApprovedForAll",
      "outputs": [
        {
          "internalType": "bool",
          "name": "",
          "type": "bool"
        }
      ],
      "stateMutability": "view",
      "type": "function"
    },
    {
      "inputs": [
        {
          "internalType": "address",
          "name": "recipient",
          "type": "address"
        }
      ],
      "name": "mintNFT",
      "outputs": [
        {
          "internalType": "uint256",
          "name": "",
          "type": "uint256"
        }
      ],
      "stateMutability": "nonpayable",
      "type": "function"
    },
    {
      "inputs": [],
      "name": "name",
      "outputs": [
        {
          "internalType": "string",
          "name": "",
          "type": "string"
        }
      ],
      "stateMutability": "view",
      "type": "function"
    },
    {
      "inputs": [],
      "name": "owner",
      "outputs": [
        {
          "internalType": "address",
          "name": "",
          "type": "address"
        }
      ],
      "stateMutability": "view",
      "type": "function"
    },
    {
      "inputs": [
        {
          "internalType": "uint256",
          "name": "tokenId",
          "type": "uint256"
        }
      ],
      "name": "ownerOf",
      "outputs": [
        {
          "internalType": "address",
          "name": "",
          "type": "address"
        }
      ],
      "stateMutability": "view",
      "type": "function"
    },
    {
      "inputs": [],
      "name": "renounceOwnership",
      "outputs": [],
      "stateMutability": "nonpayable",
      "type": "function"
    },
    {
      "inputs": [
        {
          "internalType": "address",
          "name": "from",
          "type": "address"
        },
        {
          "internalType": "address",
          "name": "to",
          "type": "address"
        },
        {
          "internalType": "uint256",
          "name": "tokenId",
          "type": "uint256"
        }
      ],
      "name": "safeTransferFrom",
      "outputs": [],
      "stateMutability": "nonpayable",
      "type": "function"
    },
    {
      "inputs": [
        {
          "internalType": "address",
          "name": "from",
          "type": "address"
        },
        {
          "internalType": "address",
          "name": "to",
          "type": "address"
        },
        {
          "internalType": "uint256",
          "name": "tokenId",
          "type": "uint256"
        },
        {
          "internalType": "bytes",
          "name": "data",
          "type": "bytes"
        }
      ],
      "name": "safeTransferFrom",
      "outputs": [],
      "stateMutability": "nonpayable",
      "type": "function"
    },
    {
      "inputs": [
        {
          "internalType": "address",
          "name": "operator",
          "type": "address"
        },
        {
          "internalType": "bool",
          "name": "approved",
          "type": "bool"
        }
      ],
      "name": "setApprovalForAll",
      "outputs": [],
      "stateMutability": "nonpayable",
      "type": "function"
    },
    {
      "inputs": [
        {
          "internalType": "uint256",
          "name": "inventoriesNum",
          "type": "uint256"
        }
      ],
      "name": "setTicketInventories",
      "outputs": [],
      "stateMutability": "nonpayable",
      "type": "function"
    },
    {
      "inputs": [
        {
          "internalType": "bytes4",
          "name": "interfaceId",
          "type": "bytes4"
        }
      ],
      "name": "supportsInterface",
      "outputs": [
        {
          "internalType": "bool",
          "name": "",
          "type": "bool"
        }
      ],
      "stateMutability": "view",
      "type": "function"
    },
    {
      "inputs": [],
      "name": "symbol",
      "outputs": [
        {
          "internalType": "string",
          "name": "",
          "type": "string"
        }
      ],
      "stateMutability": "view",
      "type": "function"
    },
    {
      "inputs": [],
      "name": "ticketInventories",
      "outputs": [
        {
          "internalType": "uint256",
          "name": "",
          "type": "uint256"
        }
      ],
      "stateMutability": "view",
      "type": "function"
    },
    {
      "inputs": [],
      "name": "tokenIds",
      "outputs": [
        {
          "internalType": "uint256",
          "name": "_value",
          "type": "uint256"
        }
      ],
      "stateMutability": "view",
      "type": "function"
    },
    {
      "inputs": [
        {
          "internalType": "uint256",
          "name": "tokenId",
          "type": "uint256"
        }
      ],
      "name": "tokenURI",
      "outputs": [
        {
          "internalType": "string",
          "name": "",
          "type": "string"
        }
      ],
      "stateMutability": "view",
      "type": "function"
    },
    {
      "inputs": [
        {
          "internalType": "address",
          "name": "from",
          "type": "address"
        },
        {
          "internalType": "address",
          "name": "to",
          "type": "address"
        },
        {
          "internalType": "uint256",
          "name": "tokenId",
          "type": "uint256"
        }
      ],
      "name": "transferFrom",
      "outputs": [],
      "stateMutability": "nonpayable",
      "type": "function"
    },
    {
      "inputs": [
        {
          "internalType": "address",
          "name": "newOwner",
          "type": "address"
        }
      ],
      "name": "transferOwnership",
      "outputs": [],
      "stateMutability": "nonpayable",
      "type": "function"
    }
  ],
  "bytecode": "0x60806040523480156200001157600080fd5b506040516200364138038062003641833981810160405281019062000037919062000269565b6040518060400160405280601181526020017f496e506572736f6e5469636b65744e46540000000000000000000000000000008152506040518060400160405280600381526020017f4e465400000000000000000000000000000000000000000000000000000000008152508160009081620000b4919062000515565b508060019081620000c6919062000515565b505050620000e9620000dd6200013160201b60201c565b6200013960201b60201c565b80600a60006101000a81548173ffffffffffffffffffffffffffffffffffffffff021916908373ffffffffffffffffffffffffffffffffffffffff16021790555050620005fc565b600033905090565b6000600760009054906101000a900473ffffffffffffffffffffffffffffffffffffffff16905081600760006101000a81548173ffffffffffffffffffffffffffffffffffffffff021916908373ffffffffffffffffffffffffffffffffffffffff1602179055508173ffffffffffffffffffffffffffffffffffffffff168173ffffffffffffffffffffffffffffffffffffffff167f8be0079c531659141344cd1fd0a4f28419497f9722a3daafe3b4186f6b6457e060405160405180910390a35050565b600080fd5b600073ffffffffffffffffffffffffffffffffffffffff82169050919050565b6000620002318262000204565b9050919050565b620002438162000224565b81146200024f57600080fd5b50565b600081519050620002638162000238565b92915050565b600060208284031215620002825762000281620001ff565b5b6000620002928482850162000252565b91505092915050565b600081519050919050565b7f4e487b7100000000000000000000000000000000000000000000000000000000600052604160045260246000fd5b7f4e487b7100000000000000000000000000000000000000000000000000000000600052602260045260246000fd5b600060028204905060018216806200031d57607f821691505b602082108103620003335762000332620002d5565b5b50919050565b60008190508160005260206000209050919050565b60006020601f8301049050919050565b600082821b905092915050565b6000600883026200039d7fffffffffffffffffffffffffffffffffffffffffffffffffffffffffffffffff826200035e565b620003a986836200035e565b95508019841693508086168417925050509392505050565b6000819050919050565b6000819050919050565b6000620003f6620003f0620003ea84620003c1565b620003cb565b620003c1565b9050919050565b6000819050919050565b6200041283620003d5565b6200042a6200042182620003fd565b8484546200036b565b825550505050565b600090565b6200044162000432565b6200044e81848462000407565b505050565b5b8181101562000476576200046a60008262000437565b60018101905062000454565b5050565b601f821115620004c5576200048f8162000339565b6200049a846200034e565b81016020851015620004aa578190505b620004c2620004b9856200034e565b83018262000453565b50505b505050565b600082821c905092915050565b6000620004ea60001984600802620004ca565b1980831691505092915050565b6000620005058383620004d7565b9150826002028217905092915050565b62000520826200029b565b67ffffffffffffffff8111156200053c576200053b620002a6565b5b62000548825462000304565b620005558282856200047a565b600060209050601f8311600181146200058d576000841562000578578287015190505b620005848582620004f7565b865550620005f4565b601f1984166200059d8662000339565b60005b82811015620005c757848901518255600182019150602085019450602081019050620005a0565b86831015620005e75784890151620005e3601f891682620004d7565b8355505b6001600288020188555050505b505050505050565b613035806200060c6000396000f3fe608060405234801561001057600080fd5b50600436106101375760003560e01c806370a08231116100b857806395d89b411161007c57806395d89b411461033c578063a22cb4651461035a578063b88d4fde14610376578063c87b56dd14610392578063e985e9c5146103c2578063f2fde38b146103f257610137565b806370a08231146102aa578063714cff56146102da578063715018a6146102f85780637efabadd146103025780638da5cb5b1461031e57610137565b8063357b1288116100ff578063357b1288146101f257806342842e0e1461021057806354ba0f271461022c5780635b2cfe271461025c5780636352211e1461027a57610137565b806301ffc9a71461013c57806306fdde031461016c578063081812fc1461018a578063095ea7b3146101ba57806323b872dd146101d6575b600080fd5b61015660048036038101906101519190611c42565b61040e565b6040516101639190611c8a565b60405180910390f35b6101746104f0565b6040516101819190611d35565b60405180910390f35b6101a4600480360381019061019f9190611d8d565b610582565b6040516101b19190611dfb565b60405180910390f35b6101d460048036038101906101cf9190611e42565b6105c8565b005b6101f060048036038101906101eb9190611e82565b6106df565b005b6101fa61073f565b6040516102079190611dfb565b60405180910390f35b61022a60048036038101906102259190611e82565b610765565b005b61024660048036038101906102419190611ed5565b610785565b6040516102539190611f11565b60405180910390f35b6102646108f3565b6040516102719190611f11565b60405180910390f35b610294600480360381019061028f9190611d8d565b6108f9565b6040516102a19190611dfb565b60405180910390f35b6102c460048036038101906102bf9190611ed5565b6109aa565b6040516102d19190611f11565b60405180910390f35b6102e2610a61565b6040516102ef9190611f11565b60405180910390f35b610300610a6d565b005b61031c60048036038101906103179190611d8d565b610a81565b005b610326610a93565b6040516103339190611dfb565b60405180910390f35b610344610abd565b6040516103519190611d35565b60405180910390f35b610374600480360381019061036f9190611f58565b610b4f565b005b610390600480360381019061038b91906120cd565b610b65565b005b6103ac60048036038101906103a79190611d8d565b610bc7565b6040516103b99190611d35565b60405180910390f35b6103dc60048036038101906103d79190612150565b610cd9565b6040516103e99190611c8a565b60405180910390f35b61040c60048036038101906104079190611ed5565b610d6d565b005b60007f80ac58cd000000000000000000000000000000000000000000000000000000007bffffffffffffffffffffffffffffffffffffffffffffffffffffffff1916827bffffffffffffffffffffffffffffffffffffffffffffffffffffffff191614806104d957507f5b5e139f000000000000000000000000000000000000000000000000000000007bffffffffffffffffffffffffffffffffffffffffffffffffffffffff1916827bffffffffffffffffffffffffffffffffffffffffffffffffffffffff1916145b806104e957506104e882610df0565b5b9050919050565b6060600080546104ff906121bf565b80601f016020809104026020016040519081016040528092919081815260200182805461052b906121bf565b80156105785780601f1061054d57610100808354040283529160200191610578565b820191906000526020600020905b81548152906001019060200180831161055b57829003601f168201915b5050505050905090565b600061058d82610e5a565b6004600083815260200190815260200160002060009054906101000a900473ffffffffffffffffffffffffffffffffffffffff169050919050565b60006105d3826108f9565b90508073ffffffffffffffffffffffffffffffffffffffff168373ffffffffffffffffffffffffffffffffffffffff1603610643576040517f08c379a000000000000000000000000000000000000000000000000000000000815260040161063a90612262565b60405180910390fd5b8073ffffffffffffffffffffffffffffffffffffffff16610662610ea5565b73ffffffffffffffffffffffffffffffffffffffff16148061069157506106908161068b610ea5565b610cd9565b5b6106d0576040517f08c379a00000000000000000000000000000000000000000000000000000000081526004016106c7906122f4565b60405180910390fd5b6106da8383610ead565b505050565b6106f06106ea610ea5565b82610f66565b61072f576040517f08c379a000000000000000000000000000000000000000000000000000000000815260040161072690612386565b60405180910390fd5b61073a838383610ffb565b505050565b600a60009054906101000a900473ffffffffffffffffffffffffffffffffffffffff1681565b61078083838360405180602001604052806000815250610b65565b505050565b6000600a60009054906101000a900473ffffffffffffffffffffffffffffffffffffffff1673ffffffffffffffffffffffffffffffffffffffff163373ffffffffffffffffffffffffffffffffffffffff1614610817576040517f08c379a000000000000000000000000000000000000000000000000000000000815260040161080e90612418565b60405180910390fd5b6009546108246008611261565b1115610865576040517f08c379a000000000000000000000000000000000000000000000000000000000815260040161085c90612484565b60405180910390fd5b61086f600861126f565b600061087b6008611261565b90506108878382611285565b6000604051806060016040528060358152602001612fcb6035913990506108ae828261145e565b7f78cd0b8cb283c9e59e1ce3924f0d16f7b91f4a1ef2e62744e3934f9407229b2a8483836040516108e1939291906124a4565b60405180910390a18192505050919050565b60095481565b6000806002600084815260200190815260200160002060009054906101000a900473ffffffffffffffffffffffffffffffffffffffff169050600073ffffffffffffffffffffffffffffffffffffffff168173ffffffffffffffffffffffffffffffffffffffff16036109a1576040517f08c379a00000000000000000000000000000000000000000000000000000000081526004016109989061252e565b60405180910390fd5b80915050919050565b60008073ffffffffffffffffffffffffffffffffffffffff168273ffffffffffffffffffffffffffffffffffffffff1603610a1a576040517f08c379a0000000000000000000000000000000000000000000000000000000008152600401610a11906125c0565b60405180910390fd5b600360008373ffffffffffffffffffffffffffffffffffffffff1673ffffffffffffffffffffffffffffffffffffffff168152602001908152602001600020549050919050565b60088060000154905081565b610a756114cb565b610a7f6000611549565b565b610a896114cb565b8060098190555050565b6000600760009054906101000a900473ffffffffffffffffffffffffffffffffffffffff16905090565b606060018054610acc906121bf565b80601f0160208091040260200160405190810160405280929190818152602001828054610af8906121bf565b8015610b455780601f10610b1a57610100808354040283529160200191610b45565b820191906000526020600020905b815481529060010190602001808311610b2857829003601f168201915b5050505050905090565b610b61610b5a610ea5565b838361160f565b5050565b610b76610b70610ea5565b83610f66565b610bb5576040517f08c379a0000000000000000000000000000000000000000000000000000000008152600401610bac90612386565b60405180910390fd5b610bc18484848461177b565b50505050565b6060610bd282610e5a565b6000600660008481526020019081526020016000208054610bf2906121bf565b80601f0160208091040260200160405190810160405280929190818152602001828054610c1e906121bf565b8015610c6b5780601f10610c4057610100808354040283529160200191610c6b565b820191906000526020600020905b815481529060010190602001808311610c4e57829003601f168201915b505050505090506000610c7c6117d7565b90506000815103610c91578192505050610cd4565b600082511115610cc6578082604051602001610cae92919061261c565b60405160208183030381529060405292505050610cd4565b610ccf846117ee565b925050505b919050565b6000600560008473ffffffffffffffffffffffffffffffffffffffff1673ffffffffffffffffffffffffffffffffffffffff16815260200190815260200160002060008373ffffffffffffffffffffffffffffffffffffffff1673ffffffffffffffffffffffffffffffffffffffff16815260200190815260200160002060009054906101000a900460ff16905092915050565b610d756114cb565b600073ffffffffffffffffffffffffffffffffffffffff168173ffffffffffffffffffffffffffffffffffffffff1603610de4576040517f08c379a0000000000000000000000000000000000000000000000000000000008152600401610ddb906126b2565b60405180910390fd5b610ded81611549565b50565b60007f01ffc9a7000000000000000000000000000000000000000000000000000000007bffffffffffffffffffffffffffffffffffffffffffffffffffffffff1916827bffffffffffffffffffffffffffffffffffffffffffffffffffffffff1916149050919050565b610e6381611856565b610ea2576040517f08c379a0000000000000000000000000000000000000000000000000000000008152600401610e999061252e565b60405180910390fd5b50565b600033905090565b816004600083815260200190815260200160002060006101000a81548173ffffffffffffffffffffffffffffffffffffffff021916908373ffffffffffffffffffffffffffffffffffffffff160217905550808273ffffffffffffffffffffffffffffffffffffffff16610f20836108f9565b73ffffffffffffffffffffffffffffffffffffffff167f8c5be1e5ebec7d5bd14f71427d1e84f3dd0314c0f7b2291e5b200ac8c7c3b92560405160405180910390a45050565b600080610f72836108f9565b90508073ffffffffffffffffffffffffffffffffffffffff168473ffffffffffffffffffffffffffffffffffffffff161480610fb45750610fb38185610cd9565b5b80610ff257508373ffffffffffffffffffffffffffffffffffffffff16610fda84610582565b73ffffffffffffffffffffffffffffffffffffffff16145b91505092915050565b8273ffffffffffffffffffffffffffffffffffffffff1661101b826108f9565b73ffffffffffffffffffffffffffffffffffffffff1614611071576040517f08c379a000000000000000000000000000000000000000000000000000000000815260040161106890612744565b60405180910390fd5b600073ffffffffffffffffffffffffffffffffffffffff168273ffffffffffffffffffffffffffffffffffffffff16036110e0576040517f08c379a00000000000000000000000000000000000000000000000000000000081526004016110d7906127d6565b60405180910390fd5b6110eb8383836118c2565b6110f6600082610ead565b6001600360008573ffffffffffffffffffffffffffffffffffffffff1673ffffffffffffffffffffffffffffffffffffffff16815260200190815260200160002060008282546111469190612825565b925050819055506001600360008473ffffffffffffffffffffffffffffffffffffffff1673ffffffffffffffffffffffffffffffffffffffff168152602001908152602001600020600082825461119d9190612859565b92505081905550816002600083815260200190815260200160002060006101000a81548173ffffffffffffffffffffffffffffffffffffffff021916908373ffffffffffffffffffffffffffffffffffffffff160217905550808273ffffffffffffffffffffffffffffffffffffffff168473ffffffffffffffffffffffffffffffffffffffff167fddf252ad1be2c89b69c2b068fc378daa952ba7f163c4a11628f55a4df523b3ef60405160405180910390a461125c8383836118c7565b505050565b600081600001549050919050565b6001816000016000828254019250508190555050565b600073ffffffffffffffffffffffffffffffffffffffff168273ffffffffffffffffffffffffffffffffffffffff16036112f4576040517f08c379a00000000000000000000000000000000000000000000000000000000081526004016112eb906128d9565b60405180910390fd5b6112fd81611856565b1561133d576040517f08c379a000000000000000000000000000000000000000000000000000000000815260040161133490612945565b60405180910390fd5b611349600083836118c2565b6001600360008473ffffffffffffffffffffffffffffffffffffffff1673ffffffffffffffffffffffffffffffffffffffff16815260200190815260200160002060008282546113999190612859565b92505081905550816002600083815260200190815260200160002060006101000a81548173ffffffffffffffffffffffffffffffffffffffff021916908373ffffffffffffffffffffffffffffffffffffffff160217905550808273ffffffffffffffffffffffffffffffffffffffff16600073ffffffffffffffffffffffffffffffffffffffff167fddf252ad1be2c89b69c2b068fc378daa952ba7f163c4a11628f55a4df523b3ef60405160405180910390a461145a600083836118c7565b5050565b61146782611856565b6114a6576040517f08c379a000000000000000000000000000000000000000000000000000000000815260040161149d906129d7565b60405180910390fd5b806006600084815260200190815260200160002090816114c69190612ba3565b505050565b6114d3610ea5565b73ffffffffffffffffffffffffffffffffffffffff166114f1610a93565b73ffffffffffffffffffffffffffffffffffffffff1614611547576040517f08c379a000000000000000000000000000000000000000000000000000000000815260040161153e90612cc1565b60405180910390fd5b565b6000600760009054906101000a900473ffffffffffffffffffffffffffffffffffffffff16905081600760006101000a81548173ffffffffffffffffffffffffffffffffffffffff021916908373ffffffffffffffffffffffffffffffffffffffff1602179055508173ffffffffffffffffffffffffffffffffffffffff168173ffffffffffffffffffffffffffffffffffffffff167f8be0079c531659141344cd1fd0a4f28419497f9722a3daafe3b4186f6b6457e060405160405180910390a35050565b8173ffffffffffffffffffffffffffffffffffffffff168373ffffffffffffffffffffffffffffffffffffffff160361167d576040517f08c379a000000000000000000000000000000000000000000000000000000000815260040161167490612d2d565b60405180910390fd5b80600560008573ffffffffffffffffffffffffffffffffffffffff1673ffffffffffffffffffffffffffffffffffffffff16815260200190815260200160002060008473ffffffffffffffffffffffffffffffffffffffff1673ffffffffffffffffffffffffffffffffffffffff16815260200190815260200160002060006101000a81548160ff0219169083151502179055508173ffffffffffffffffffffffffffffffffffffffff168373ffffffffffffffffffffffffffffffffffffffff167f17307eab39ab6107e8899845ad3d59bd9653f200f220920489ca2b5937696c318360405161176e9190611c8a565b60405180910390a3505050565b611786848484610ffb565b611792848484846118cc565b6117d1576040517f08c379a00000000000000000000000000000000000000000000000000000000081526004016117c890612dbf565b60405180910390fd5b50505050565b606060405180602001604052806000815250905090565b60606117f982610e5a565b60006118036117d7565b90506000815111611823576040518060200160405280600081525061184e565b8061182d84611a53565b60405160200161183e92919061261c565b6040516020818303038152906040525b915050919050565b60008073ffffffffffffffffffffffffffffffffffffffff166002600084815260200190815260200160002060009054906101000a900473ffffffffffffffffffffffffffffffffffffffff1673ffffffffffffffffffffffffffffffffffffffff1614159050919050565b505050565b505050565b60006118ed8473ffffffffffffffffffffffffffffffffffffffff16611bb3565b15611a46578373ffffffffffffffffffffffffffffffffffffffff1663150b7a02611916610ea5565b8786866040518563ffffffff1660e01b81526004016119389493929190612e34565b6020604051808303816000875af192505050801561197457506040513d601f19601f820116820180604052508101906119719190612e95565b60015b6119f6573d80600081146119a4576040519150601f19603f3d011682016040523d82523d6000602084013e6119a9565b606091505b5060008151036119ee576040517f08c379a00000000000000000000000000000000000000000000000000000000081526004016119e590612dbf565b60405180910390fd5b805181602001fd5b63150b7a0260e01b7bffffffffffffffffffffffffffffffffffffffffffffffffffffffff1916817bffffffffffffffffffffffffffffffffffffffffffffffffffffffff191614915050611a4b565b600190505b949350505050565b606060008203611a9a576040518060400160405280600181526020017f30000000000000000000000000000000000000000000000000000000000000008152509050611bae565b600082905060005b60008214611acc578080611ab590612ec2565b915050600a82611ac59190612f39565b9150611aa2565b60008167ffffffffffffffff811115611ae857611ae7611fa2565b5b6040519080825280601f01601f191660200182016040528015611b1a5781602001600182028036833780820191505090505b5090505b60008514611ba757600182611b339190612825565b9150600a85611b429190612f6a565b6030611b4e9190612859565b60f81b818381518110611b6457611b63612f9b565b5b60200101907effffffffffffffffffffffffffffffffffffffffffffffffffffffffffffff1916908160001a905350600a85611ba09190612f39565b9450611b1e565b8093505050505b919050565b6000808273ffffffffffffffffffffffffffffffffffffffff163b119050919050565b6000604051905090565b600080fd5b600080fd5b60007fffffffff0000000000000000000000000000000000000000000000000000000082169050919050565b611c1f81611bea565b8114611c2a57600080fd5b50565b600081359050611c3c81611c16565b92915050565b600060208284031215611c5857611c57611be0565b5b6000611c6684828501611c2d565b91505092915050565b60008115159050919050565b611c8481611c6f565b82525050565b6000602082019050611c9f6000830184611c7b565b92915050565b600081519050919050565b600082825260208201905092915050565b60005b83811015611cdf578082015181840152602081019050611cc4565b60008484015250505050565b6000601f19601f8301169050919050565b6000611d0782611ca5565b611d118185611cb0565b9350611d21818560208601611cc1565b611d2a81611ceb565b840191505092915050565b60006020820190508181036000830152611d4f8184611cfc565b905092915050565b6000819050919050565b611d6a81611d57565b8114611d7557600080fd5b50565b600081359050611d8781611d61565b92915050565b600060208284031215611da357611da2611be0565b5b6000611db184828501611d78565b91505092915050565b600073ffffffffffffffffffffffffffffffffffffffff82169050919050565b6000611de582611dba565b9050919050565b611df581611dda565b82525050565b6000602082019050611e106000830184611dec565b92915050565b611e1f81611dda565b8114611e2a57600080fd5b50565b600081359050611e3c81611e16565b92915050565b60008060408385031215611e5957611e58611be0565b5b6000611e6785828601611e2d565b9250506020611e7885828601611d78565b9150509250929050565b600080600060608486031215611e9b57611e9a611be0565b5b6000611ea986828701611e2d565b9350506020611eba86828701611e2d565b9250506040611ecb86828701611d78565b9150509250925092565b600060208284031215611eeb57611eea611be0565b5b6000611ef984828501611e2d565b91505092915050565b611f0b81611d57565b82525050565b6000602082019050611f266000830184611f02565b92915050565b611f3581611c6f565b8114611f4057600080fd5b50565b600081359050611f5281611f2c565b92915050565b60008060408385031215611f6f57611f6e611be0565b5b6000611f7d85828601611e2d565b9250506020611f8e85828601611f43565b9150509250929050565b600080fd5b600080fd5b7f4e487b7100000000000000000000000000000000000000000000000000000000600052604160045260246000fd5b611fda82611ceb565b810181811067ffffffffffffffff82111715611ff957611ff8611fa2565b5b80604052505050565b600061200c611bd6565b90506120188282611fd1565b919050565b600067ffffffffffffffff82111561203857612037611fa2565b5b61204182611ceb565b9050602081019050919050565b82818337600083830152505050565b600061207061206b8461201d565b612002565b90508281526020810184848401111561208c5761208b611f9d565b5b61209784828561204e565b509392505050565b600082601f8301126120b4576120b3611f98565b5b81356120c484826020860161205d565b91505092915050565b600080600080608085870312156120e7576120e6611be0565b5b60006120f587828801611e2d565b945050602061210687828801611e2d565b935050604061211787828801611d78565b925050606085013567ffffffffffffffff81111561213857612137611be5565b5b6121448782880161209f565b91505092959194509250565b6000806040838503121561216757612166611be0565b5b600061217585828601611e2d565b925050602061218685828601611e2d565b9150509250929050565b7f4e487b7100000000000000000000000000000000000000000000000000000000600052602260045260246000fd5b600060028204905060018216806121d757607f821691505b6020821081036121ea576121e9612190565b5b50919050565b7f4552433732313a20617070726f76616c20746f2063757272656e74206f776e6560008201527f7200000000000000000000000000000000000000000000000000000000000000602082015250565b600061224c602183611cb0565b9150612257826121f0565b604082019050919050565b6000602082019050818103600083015261227b8161223f565b9050919050565b7f4552433732313a20617070726f76652063616c6c6572206973206e6f7420746f60008201527f6b656e206f776e6572206e6f7220617070726f76656420666f7220616c6c0000602082015250565b60006122de603e83611cb0565b91506122e982612282565b604082019050919050565b6000602082019050818103600083015261230d816122d1565b9050919050565b7f4552433732313a2063616c6c6572206973206e6f7420746f6b656e206f776e6560008201527f72206e6f7220617070726f766564000000000000000000000000000000000000602082015250565b6000612370602e83611cb0565b915061237b82612314565b604082019050919050565b6000602082019050818103600083015261239f81612363565b9050919050565b7f4f6e6c792044414f207469636b657420636f6e74726163742063616e206d696e60008201527f7420616e20496e506572736f6e5469636b65744e465421000000000000000000602082015250565b6000612402603783611cb0565b915061240d826123a6565b604082019050919050565b60006020820190508181036000830152612431816123f5565b9050919050565b7f54686572652773206e6f207469636b6574206c6566742c20736f727279210000600082015250565b600061246e601e83611cb0565b915061247982612438565b602082019050919050565b6000602082019050818103600083015261249d81612461565b9050919050565b60006060820190506124b96000830186611dec565b6124c66020830185611f02565b81810360408301526124d88184611cfc565b9050949350505050565b7f4552433732313a20696e76616c696420746f6b656e2049440000000000000000600082015250565b6000612518601883611cb0565b9150612523826124e2565b602082019050919050565b600060208201905081810360008301526125478161250b565b9050919050565b7f4552433732313a2061646472657373207a65726f206973206e6f74206120766160008201527f6c6964206f776e65720000000000000000000000000000000000000000000000602082015250565b60006125aa602983611cb0565b91506125b58261254e565b604082019050919050565b600060208201905081810360008301526125d98161259d565b9050919050565b600081905092915050565b60006125f682611ca5565b61260081856125e0565b9350612610818560208601611cc1565b80840191505092915050565b600061262882856125eb565b915061263482846125eb565b91508190509392505050565b7f4f776e61626c653a206e6577206f776e657220697320746865207a65726f206160008201527f6464726573730000000000000000000000000000000000000000000000000000602082015250565b600061269c602683611cb0565b91506126a782612640565b604082019050919050565b600060208201905081810360008301526126cb8161268f565b9050919050565b7f4552433732313a207472616e736665722066726f6d20696e636f72726563742060008201527f6f776e6572000000000000000000000000000000000000000000000000000000602082015250565b600061272e602583611cb0565b9150612739826126d2565b604082019050919050565b6000602082019050818103600083015261275d81612721565b9050919050565b7f4552433732313a207472616e7366657220746f20746865207a65726f2061646460008201527f7265737300000000000000000000000000000000000000000000000000000000602082015250565b60006127c0602483611cb0565b91506127cb82612764565b604082019050919050565b600060208201905081810360008301526127ef816127b3565b9050919050565b7f4e487b7100000000000000000000000000000000000000000000000000000000600052601160045260246000fd5b600061283082611d57565b915061283b83611d57565b9250828203905081811115612853576128526127f6565b5b92915050565b600061286482611d57565b915061286f83611d57565b9250828201905080821115612887576128866127f6565b5b92915050565b7f4552433732313a206d696e7420746f20746865207a65726f2061646472657373600082015250565b60006128c3602083611cb0565b91506128ce8261288d565b602082019050919050565b600060208201905081810360008301526128f2816128b6565b9050919050565b7f4552433732313a20746f6b656e20616c7265616479206d696e74656400000000600082015250565b600061292f601c83611cb0565b915061293a826128f9565b602082019050919050565b6000602082019050818103600083015261295e81612922565b9050919050565b7f45524337323155524953746f726167653a2055524920736574206f66206e6f6e60008201527f6578697374656e7420746f6b656e000000000000000000000000000000000000602082015250565b60006129c1602e83611cb0565b91506129cc82612965565b604082019050919050565b600060208201905081810360008301526129f0816129b4565b9050919050565b60008190508160005260206000209050919050565b60006020601f8301049050919050565b600082821b905092915050565b600060088302612a597fffffffffffffffffffffffffffffffffffffffffffffffffffffffffffffffff82612a1c565b612a638683612a1c565b95508019841693508086168417925050509392505050565b6000819050919050565b6000612aa0612a9b612a9684611d57565b612a7b565b611d57565b9050919050565b6000819050919050565b612aba83612a85565b612ace612ac682612aa7565b848454612a29565b825550505050565b600090565b612ae3612ad6565b612aee818484612ab1565b505050565b5b81811015612b1257612b07600082612adb565b600181019050612af4565b5050565b601f821115612b5757612b28816129f7565b612b3184612a0c565b81016020851015612b40578190505b612b54612b4c85612a0c565b830182612af3565b50505b505050565b600082821c905092915050565b6000612b7a60001984600802612b5c565b1980831691505092915050565b6000612b938383612b69565b9150826002028217905092915050565b612bac82611ca5565b67ffffffffffffffff811115612bc557612bc4611fa2565b5b612bcf82546121bf565b612bda828285612b16565b600060209050601f831160018114612c0d5760008415612bfb578287015190505b612c058582612b87565b865550612c6d565b601f198416612c1b866129f7565b60005b82811015612c4357848901518255600182019150602085019450602081019050612c1e565b86831015612c605784890151612c5c601f891682612b69565b8355505b6001600288020188555050505b505050505050565b7f4f776e61626c653a2063616c6c6572206973206e6f7420746865206f776e6572600082015250565b6000612cab602083611cb0565b9150612cb682612c75565b602082019050919050565b60006020820190508181036000830152612cda81612c9e565b9050919050565b7f4552433732313a20617070726f766520746f2063616c6c657200000000000000600082015250565b6000612d17601983611cb0565b9150612d2282612ce1565b602082019050919050565b60006020820190508181036000830152612d4681612d0a565b9050919050565b7f4552433732313a207472616e7366657220746f206e6f6e20455243373231526560008201527f63656976657220696d706c656d656e7465720000000000000000000000000000602082015250565b6000612da9603283611cb0565b9150612db482612d4d565b604082019050919050565b60006020820190508181036000830152612dd881612d9c565b9050919050565b600081519050919050565b600082825260208201905092915050565b6000612e0682612ddf565b612e108185612dea565b9350612e20818560208601611cc1565b612e2981611ceb565b840191505092915050565b6000608082019050612e496000830187611dec565b612e566020830186611dec565b612e636040830185611f02565b8181036060830152612e758184612dfb565b905095945050505050565b600081519050612e8f81611c16565b92915050565b600060208284031215612eab57612eaa611be0565b5b6000612eb984828501612e80565b91505092915050565b6000612ecd82611d57565b91507fffffffffffffffffffffffffffffffffffffffffffffffffffffffffffffffff8203612eff57612efe6127f6565b5b600182019050919050565b7f4e487b7100000000000000000000000000000000000000000000000000000000600052601260045260246000fd5b6000612f4482611d57565b9150612f4f83611d57565b925082612f5f57612f5e612f0a565b5b828204905092915050565b6000612f7582611d57565b9150612f8083611d57565b925082612f9057612f8f612f0a565b5b828206905092915050565b7f4e487b7100000000000000000000000000000000000000000000000000000000600052603260045260246000fdfe697066733a2f2f516d4e564a5073776e52774852657074614253725738315234336b685271444164554d6f5a4574646e684d346d6ea2646970667358221220f5c18781dcc832706e255c53ad63d5db912db1da12913062a994c84bc812d97364736f6c63430008110033",
  "linkReferences": {},
  "deployedLinkReferences": {}
}