{
  "_format": "hh-sol-artifact-1",
  "contractName": "Ticket",
  "sourceName": "contracts/Ticket.sol",
  "abi": [
    {
      "inputs": [
        {
          "internalType": "address",
          "name": "multisig",
          "type": "address"
        },
        {
          "internalType": "address",
          "name": "nftAddr",
          "type": "address"
        },
        {
          "internalType": "address",
          "name": "gohmAddr",
          "type": "address"
        },
        {
          "internalType": "address",
          "name": "usdcAddr",
          "type": "address"
        },
        {
          "internalType": "address",
          "name": "fraxAddr",
          "type": "address"
        },
        {
          "internalType": "address",
          "name": "daiAddr",
          "type": "address"
        }
      ],
      "stateMutability": "nonpayable",
      "type": "constructor"
    },
    {
      "anonymous": false,
      "inputs": [
        {
          "indexed": true,
          "internalType": "address",
          "name": "owner",
          "type": "address"
        },
        {
          "indexed": true,
          "internalType": "address",
          "name": "spender",
          "type": "address"
        },
        {
          "indexed": false,
          "internalType": "uint256",
          "name": "value",
          "type": "uint256"
        }
      ],
      "name": "Approval",
      "type": "event"
    },
    {
      "anonymous": false,
      "inputs": [
        {
          "indexed": true,
          "internalType": "address",
          "name": "previousOwner",
          "type": "address"
        },
        {
          "indexed": true,
          "internalType": "address",
          "name": "newOwner",
          "type": "address"
        }
      ],
      "name": "OwnershipTransferred",
      "type": "event"
    },
    {
      "anonymous": false,
      "inputs": [
        {
          "indexed": true,
          "internalType": "address",
          "name": "gnosisMultiSigAddr",
          "type": "address"
        },
        {
          "indexed": false,
          "internalType": "uint256",
          "name": "tokenIdx",
          "type": "uint256"
        },
        {
          "indexed": false,
          "internalType": "uint256",
          "name": "tokenBalance",
          "type": "uint256"
        }
      ],
      "name": "WithdrawFundTo",
      "type": "event"
    },
    {
      "inputs": [
        {
          "internalType": "string",
          "name": "tokenName",
          "type": "string"
        },
        {
          "internalType": "string",
          "name": "ticketName",
          "type": "string"
        },
        {
          "internalType": "bool",
          "name": "isStableCoin",
          "type": "bool"
        }
      ],
      "name": "buyTicket",
      "outputs": [],
      "stateMutability": "nonpayable",
      "type": "function"
    },
    {
      "inputs": [],
      "name": "dai",
      "outputs": [
        {
          "internalType": "contract IERC20",
          "name": "",
          "type": "address"
        }
      ],
      "stateMutability": "view",
      "type": "function"
    },
    {
      "inputs": [],
      "name": "frax",
      "outputs": [
        {
          "internalType": "contract IERC20",
          "name": "",
          "type": "address"
        }
      ],
      "stateMutability": "view",
      "type": "function"
    },
    {
      "inputs": [],
      "name": "gnosisMultiSigAddr",
      "outputs": [
        {
          "internalType": "address",
          "name": "",
          "type": "address"
        }
      ],
      "stateMutability": "view",
      "type": "function"
    },
    {
      "inputs": [],
      "name": "gohm",
      "outputs": [
        {
          "internalType": "contract IERC20",
          "name": "",
          "type": "address"
        }
      ],
      "stateMutability": "view",
      "type": "function"
    },
    {
      "inputs": [
        {
          "internalType": "string",
          "name": "",
          "type": "string"
        }
      ],
      "name": "gohmTicketPrices",
      "outputs": [
        {
          "internalType": "uint256",
          "name": "",
          "type": "uint256"
        }
      ],
      "stateMutability": "view",
      "type": "function"
    },
    {
      "inputs": [],
      "name": "inPersonTicketNFTAddr",
      "outputs": [
        {
          "internalType": "address",
          "name": "",
          "type": "address"
        }
      ],
      "stateMutability": "view",
      "type": "function"
    },
    {
      "inputs": [],
      "name": "owner",
      "outputs": [
        {
          "internalType": "address",
          "name": "",
          "type": "address"
        }
      ],
      "stateMutability": "view",
      "type": "function"
    },
    {
      "inputs": [],
      "name": "renounceOwnership",
      "outputs": [],
      "stateMutability": "nonpayable",
      "type": "function"
    },
    {
      "inputs": [
        {
          "internalType": "address",
          "name": "addr",
          "type": "address"
        }
      ],
      "name": "setInPersonTicketNFTAddr",
      "outputs": [],
      "stateMutability": "nonpayable",
      "type": "function"
    },
    {
      "inputs": [
        {
          "internalType": "string",
          "name": "ticketName",
          "type": "string"
        },
        {
          "internalType": "bool",
          "name": "isStableCoin",
          "type": "bool"
        },
        {
          "internalType": "uint256",
          "name": "ticketPrice",
          "type": "uint256"
        }
      ],
      "name": "setTicketPrice",
      "outputs": [],
      "stateMutability": "nonpayable",
      "type": "function"
    },
    {
      "inputs": [
        {
          "internalType": "uint256",
          "name": "",
          "type": "uint256"
        }
      ],
      "name": "ticketTypes",
      "outputs": [
        {
          "internalType": "string",
          "name": "",
          "type": "string"
        }
      ],
      "stateMutability": "view",
      "type": "function"
    },
    {
      "inputs": [
        {
          "internalType": "address",
          "name": "newOwner",
          "type": "address"
        }
      ],
      "name": "transferOwnership",
      "outputs": [],
      "stateMutability": "nonpayable",
      "type": "function"
    },
    {
      "inputs": [
        {
          "internalType": "string",
          "name": "",
          "type": "string"
        }
      ],
      "name": "usdTicketPrices",
      "outputs": [
        {
          "internalType": "uint256",
          "name": "",
          "type": "uint256"
        }
      ],
      "stateMutability": "view",
      "type": "function"
    },
    {
      "inputs": [],
      "name": "usdc",
      "outputs": [
        {
          "internalType": "contract IERC20",
          "name": "",
          "type": "address"
        }
      ],
      "stateMutability": "view",
      "type": "function"
    },
    {
      "inputs": [],
      "name": "withdrawToken",
      "outputs": [],
      "stateMutability": "nonpayable",
      "type": "function"
    }
  ],
  "bytecode": "0x60806040523480156200001157600080fd5b50604051620028203803806200282083398181016040528101906200003791906200031f565b620000576200004b620001e960201b60201c565b620001f160201b60201c565b83600160006101000a81548173ffffffffffffffffffffffffffffffffffffffff021916908373ffffffffffffffffffffffffffffffffffffffff16021790555082600260006101000a81548173ffffffffffffffffffffffffffffffffffffffff021916908373ffffffffffffffffffffffffffffffffffffffff16021790555081600360006101000a81548173ffffffffffffffffffffffffffffffffffffffff021916908373ffffffffffffffffffffffffffffffffffffffff16021790555080600460006101000a81548173ffffffffffffffffffffffffffffffffffffffff021916908373ffffffffffffffffffffffffffffffffffffffff16021790555085600860006101000a81548173ffffffffffffffffffffffffffffffffffffffff021916908373ffffffffffffffffffffffffffffffffffffffff16021790555084600960006101000a81548173ffffffffffffffffffffffffffffffffffffffff021916908373ffffffffffffffffffffffffffffffffffffffff160217905550505050505050620003bb565b600033905090565b60008060009054906101000a900473ffffffffffffffffffffffffffffffffffffffff169050816000806101000a81548173ffffffffffffffffffffffffffffffffffffffff021916908373ffffffffffffffffffffffffffffffffffffffff1602179055508173ffffffffffffffffffffffffffffffffffffffff168173ffffffffffffffffffffffffffffffffffffffff167f8be0079c531659141344cd1fd0a4f28419497f9722a3daafe3b4186f6b6457e060405160405180910390a35050565b600080fd5b600073ffffffffffffffffffffffffffffffffffffffff82169050919050565b6000620002e782620002ba565b9050919050565b620002f981620002da565b81146200030557600080fd5b50565b6000815190506200031981620002ee565b92915050565b60008060008060008060c087890312156200033f576200033e620002b5565b5b60006200034f89828a0162000308565b96505060206200036289828a0162000308565b95505060406200037589828a0162000308565b94505060606200038889828a0162000308565b93505060806200039b89828a0162000308565b92505060a0620003ae89828a0162000308565b9150509295509295509295565b61245580620003cb6000396000f3fe608060405234801561001057600080fd5b50600436106101005760003560e01c806389b4ec8e11610097578063ca628c7811610066578063ca628c7814610277578063e9dbebce14610281578063f2fde38b146102b1578063f4b9fa75146102cd57610100565b806389b4ec8e146101ed5780638da5cb5b1461020b578063b1ead92414610229578063b79596521461025957610100565b80633ab7f2fe116100d35780633ab7f2fe1461018d5780633e413bee146101a9578063715018a6146101c75780637ce8e55a146101d157610100565b80630690b59e14610105578063269d807714610123578063294fb4e51461015357806337c249bd1461016f575b600080fd5b61010d6102eb565b60405161011a919061151d565b60405180910390f35b61013d60048036038101906101389190611692565b610311565b60405161014a91906116f4565b60405180910390f35b61016d60048036038101906101689190611747565b61033f565b005b610177610554565b60405161018491906117f3565b60405180910390f35b6101a760048036038101906101a2919061183a565b61057a565b005b6101b16105da565b6040516101be919061151d565b60405180910390f35b6101cf610600565b005b6101eb60048036038101906101e691906118d5565b610614565b005b6101f5610660565b604051610202919061151d565b60405180910390f35b610213610686565b60405161022091906117f3565b60405180910390f35b610243600480360381019061023e9190611692565b6106af565b60405161025091906116f4565b60405180910390f35b6102616106dd565b60405161026e91906117f3565b60405180910390f35b61027f610703565b005b61029b60048036038101906102969190611902565b610a00565b6040516102a891906119ae565b60405180910390f35b6102cb60048036038101906102c691906118d5565b610aac565b005b6102d5610b2f565b6040516102e2919061151d565b60405180910390f35b600160009054906101000a900473ffffffffffffffffffffffffffffffffffffffff1681565b6006818051602081018201805184825260208301602085012081835280955050505050506000915090505481565b828282600061034f848484610b55565b9050600061035c85610bf0565b90503073ffffffffffffffffffffffffffffffffffffffff163373ffffffffffffffffffffffffffffffffffffffff167f8c5be1e5ebec7d5bd14f71427d1e84f3dd0314c0f7b2291e5b200ac8c7c3b925846040516103bb91906116f4565b60405180910390a3818173ffffffffffffffffffffffffffffffffffffffff1663dd62ed3e33306040518363ffffffff1660e01b81526004016103ff9291906119d0565b602060405180830381865afa15801561041c573d6000803e3d6000fd5b505050506040513d601f19601f820116820180604052508101906104409190611a0e565b1015610481576040517f08c379a000000000000000000000000000000000000000000000000000000000815260040161047890611a87565b60405180910390fd5b600061048e898989610b55565b9050600061049b8a610bf0565b90506104a981333085610e1e565b600960009054906101000a900473ffffffffffffffffffffffffffffffffffffffff1673ffffffffffffffffffffffffffffffffffffffff166354ba0f27336040518263ffffffff1660e01b815260040161050491906117f3565b6020604051808303816000875af1158015610523573d6000803e3d6000fd5b505050506040513d601f19601f820116820180604052508101906105479190611a0e565b5050505050505050505050565b600960009054906101000a900473ffffffffffffffffffffffffffffffffffffffff1681565b610582610ea7565b60011515821515036105b2578060058460405161059f9190611ae3565b9081526020016040518091039020819055505b806006846040516105c39190611ae3565b908152602001604051809103902081905550505050565b600260009054906101000a900473ffffffffffffffffffffffffffffffffffffffff1681565b610608610ea7565b6106126000610f25565b565b61061c610ea7565b80600960006101000a81548173ffffffffffffffffffffffffffffffffffffffff021916908373ffffffffffffffffffffffffffffffffffffffff16021790555050565b600360009054906101000a900473ffffffffffffffffffffffffffffffffffffffff1681565b60008060009054906101000a900473ffffffffffffffffffffffffffffffffffffffff16905090565b6005818051602081018201805184825260208301602085012081835280955050505050506000915090505481565b600860009054906101000a900473ffffffffffffffffffffffffffffffffffffffff1681565b61070b610ea7565b60006040518060800160405280600160009054906101000a900473ffffffffffffffffffffffffffffffffffffffff1673ffffffffffffffffffffffffffffffffffffffff1673ffffffffffffffffffffffffffffffffffffffff168152602001600260009054906101000a900473ffffffffffffffffffffffffffffffffffffffff1673ffffffffffffffffffffffffffffffffffffffff1673ffffffffffffffffffffffffffffffffffffffff168152602001600360009054906101000a900473ffffffffffffffffffffffffffffffffffffffff1673ffffffffffffffffffffffffffffffffffffffff1673ffffffffffffffffffffffffffffffffffffffff168152602001600460009054906101000a900473ffffffffffffffffffffffffffffffffffffffff1673ffffffffffffffffffffffffffffffffffffffff1673ffffffffffffffffffffffffffffffffffffffff16815250905060005b60048110156109fc57600082826004811061088957610888611afa565b5b602002015173ffffffffffffffffffffffffffffffffffffffff166370a08231306040518263ffffffff1660e01b81526004016108c691906117f3565b602060405180830381865afa1580156108e3573d6000803e3d6000fd5b505050506040513d601f19601f820116820180604052508101906109079190611a0e565b9050600081146109e857610975600860009054906101000a900473ffffffffffffffffffffffffffffffffffffffff168285856004811061094b5761094a611afa565b5b602002015173ffffffffffffffffffffffffffffffffffffffff16610fe99092919063ffffffff16565b600860009054906101000a900473ffffffffffffffffffffffffffffffffffffffff1673ffffffffffffffffffffffffffffffffffffffff167f8e43cd31d7f059a59a2995cdd0810c0cdb54e60484bfc4c29b6d6baffd11ce1283836040516109df929190611b29565b60405180910390a25b5080806109f490611b81565b91505061086b565b5050565b60078181548110610a1057600080fd5b906000526020600020016000915090508054610a2b90611bf8565b80601f0160208091040260200160405190810160405280929190818152602001828054610a5790611bf8565b8015610aa45780601f10610a7957610100808354040283529160200191610aa4565b820191906000526020600020905b815481529060010190602001808311610a8757829003601f168201915b505050505081565b610ab4610ea7565b600073ffffffffffffffffffffffffffffffffffffffff168173ffffffffffffffffffffffffffffffffffffffff1603610b23576040517f08c379a0000000000000000000000000000000000000000000000000000000008152600401610b1a90611c9b565b60405180910390fd5b610b2c81610f25565b50565b600460009054906101000a900473ffffffffffffffffffffffffffffffffffffffff1681565b60006001151582151503610ba857610b6c8461106f565b600a610b789190611dee565b600584604051610b889190611ae3565b908152602001604051809103902054610ba19190611e39565b9050610be9565b610bb18461106f565b600a610bbd9190611dee565b600684604051610bcd9190611ae3565b908152602001604051809103902054610be69190611e39565b90505b9392505050565b600081604051602001610c039190611ae3565b60405160208183030381529060405280519060200120604051602001610c2890611ec7565b6040516020818303038152906040528051906020012003610c6d57600160009054906101000a900473ffffffffffffffffffffffffffffffffffffffff169050610e19565b81604051602001610c7e9190611ae3565b60405160208183030381529060405280519060200120604051602001610ca390611f28565b6040516020818303038152906040528051906020012003610ce857600260009054906101000a900473ffffffffffffffffffffffffffffffffffffffff169050610e19565b81604051602001610cf99190611ae3565b60405160208183030381529060405280519060200120604051602001610d1e90611f89565b6040516020818303038152906040528051906020012003610d6357600360009054906101000a900473ffffffffffffffffffffffffffffffffffffffff169050610e19565b81604051602001610d749190611ae3565b60405160208183030381529060405280519060200120604051602001610d9990611fea565b6040516020818303038152906040528051906020012003610dde57600460009054906101000a900473ffffffffffffffffffffffffffffffffffffffff169050610e19565b6040517f08c379a0000000000000000000000000000000000000000000000000000000008152600401610e1090612097565b60405180910390fd5b919050565b610ea1846323b872dd60e01b858585604051602401610e3f939291906120b7565b604051602081830303815290604052907bffffffffffffffffffffffffffffffffffffffffffffffffffffffff19166020820180517bffffffffffffffffffffffffffffffffffffffffffffffffffffffff8381831617835250505050611219565b50505050565b610eaf6112e0565b73ffffffffffffffffffffffffffffffffffffffff16610ecd610686565b73ffffffffffffffffffffffffffffffffffffffff1614610f23576040517f08c379a0000000000000000000000000000000000000000000000000000000008152600401610f1a9061213a565b60405180910390fd5b565b60008060009054906101000a900473ffffffffffffffffffffffffffffffffffffffff169050816000806101000a81548173ffffffffffffffffffffffffffffffffffffffff021916908373ffffffffffffffffffffffffffffffffffffffff1602179055508173ffffffffffffffffffffffffffffffffffffffff168173ffffffffffffffffffffffffffffffffffffffff167f8be0079c531659141344cd1fd0a4f28419497f9722a3daafe3b4186f6b6457e060405160405180910390a35050565b61106a8363a9059cbb60e01b848460405160240161100892919061215a565b604051602081830303815290604052907bffffffffffffffffffffffffffffffffffffffffffffffffffffffff19166020820180517bffffffffffffffffffffffffffffffffffffffffffffffffffffffff8381831617835250505050611219565b505050565b6000816040516020016110829190611ae3565b604051602081830303815290604052805190602001206040516020016110a790611ec7565b60405160208183030381529060405280519060200120036110cb5760099050611214565b816040516020016110dc9190611ae3565b6040516020818303038152906040528051906020012060405160200161110190611f28565b60405160208183030381529060405280519060200120036111255760069050611214565b816040516020016111369190611ae3565b6040516020818303038152906040528051906020012060405160200161115b90611f89565b604051602081830303815290604052805190602001200361117f5760129050611214565b816040516020016111909190611ae3565b604051602081830303815290604052805190602001206040516020016111b590611fea565b60405160208183030381529060405280519060200120036111d95760129050611214565b6040517f08c379a000000000000000000000000000000000000000000000000000000000815260040161120b906121cf565b60405180910390fd5b919050565b600061127b826040518060400160405280602081526020017f5361666545524332303a206c6f772d6c6576656c2063616c6c206661696c65648152508573ffffffffffffffffffffffffffffffffffffffff166112e89092919063ffffffff16565b90506000815111156112db578080602001905181019061129b9190612204565b6112da576040517f08c379a00000000000000000000000000000000000000000000000000000000081526004016112d1906122a3565b60405180910390fd5b5b505050565b600033905090565b60606112f78484600085611300565b90509392505050565b606082471015611345576040517f08c379a000000000000000000000000000000000000000000000000000000000815260040161133c90612335565b60405180910390fd5b61134e85611414565b61138d576040517f08c379a0000000000000000000000000000000000000000000000000000000008152600401611384906123a1565b60405180910390fd5b6000808673ffffffffffffffffffffffffffffffffffffffff1685876040516113b69190612408565b60006040518083038185875af1925050503d80600081146113f3576040519150601f19603f3d011682016040523d82523d6000602084013e6113f8565b606091505b5091509150611408828286611437565b92505050949350505050565b6000808273ffffffffffffffffffffffffffffffffffffffff163b119050919050565b6060831561144757829050611497565b60008351111561145a5782518084602001fd5b816040517f08c379a000000000000000000000000000000000000000000000000000000000815260040161148e91906119ae565b60405180910390fd5b9392505050565b600073ffffffffffffffffffffffffffffffffffffffff82169050919050565b6000819050919050565b60006114e36114de6114d98461149e565b6114be565b61149e565b9050919050565b60006114f5826114c8565b9050919050565b6000611507826114ea565b9050919050565b611517816114fc565b82525050565b6000602082019050611532600083018461150e565b92915050565b6000604051905090565b600080fd5b600080fd5b600080fd5b600080fd5b6000601f19601f8301169050919050565b7f4e487b7100000000000000000000000000000000000000000000000000000000600052604160045260246000fd5b61159f82611556565b810181811067ffffffffffffffff821117156115be576115bd611567565b5b80604052505050565b60006115d1611538565b90506115dd8282611596565b919050565b600067ffffffffffffffff8211156115fd576115fc611567565b5b61160682611556565b9050602081019050919050565b82818337600083830152505050565b6000611635611630846115e2565b6115c7565b90508281526020810184848401111561165157611650611551565b5b61165c848285611613565b509392505050565b600082601f8301126116795761167861154c565b5b8135611689848260208601611622565b91505092915050565b6000602082840312156116a8576116a7611542565b5b600082013567ffffffffffffffff8111156116c6576116c5611547565b5b6116d284828501611664565b91505092915050565b6000819050919050565b6116ee816116db565b82525050565b600060208201905061170960008301846116e5565b92915050565b60008115159050919050565b6117248161170f565b811461172f57600080fd5b50565b6000813590506117418161171b565b92915050565b6000806000606084860312156117605761175f611542565b5b600084013567ffffffffffffffff81111561177e5761177d611547565b5b61178a86828701611664565b935050602084013567ffffffffffffffff8111156117ab576117aa611547565b5b6117b786828701611664565b92505060406117c886828701611732565b9150509250925092565b60006117dd8261149e565b9050919050565b6117ed816117d2565b82525050565b600060208201905061180860008301846117e4565b92915050565b611817816116db565b811461182257600080fd5b50565b6000813590506118348161180e565b92915050565b60008060006060848603121561185357611852611542565b5b600084013567ffffffffffffffff81111561187157611870611547565b5b61187d86828701611664565b935050602061188e86828701611732565b925050604061189f86828701611825565b9150509250925092565b6118b2816117d2565b81146118bd57600080fd5b50565b6000813590506118cf816118a9565b92915050565b6000602082840312156118eb576118ea611542565b5b60006118f9848285016118c0565b91505092915050565b60006020828403121561191857611917611542565b5b600061192684828501611825565b91505092915050565b600081519050919050565b600082825260208201905092915050565b60005b8381101561196957808201518184015260208101905061194e565b60008484015250505050565b60006119808261192f565b61198a818561193a565b935061199a81856020860161194b565b6119a381611556565b840191505092915050565b600060208201905081810360008301526119c88184611975565b905092915050565b60006040820190506119e560008301856117e4565b6119f260208301846117e4565b9392505050565b600081519050611a088161180e565b92915050565b600060208284031215611a2457611a23611542565b5b6000611a32848285016119f9565b91505092915050565b7f4572726f72000000000000000000000000000000000000000000000000000000600082015250565b6000611a7160058361193a565b9150611a7c82611a3b565b602082019050919050565b60006020820190508181036000830152611aa081611a64565b9050919050565b600081905092915050565b6000611abd8261192f565b611ac78185611aa7565b9350611ad781856020860161194b565b80840191505092915050565b6000611aef8284611ab2565b915081905092915050565b7f4e487b7100000000000000000000000000000000000000000000000000000000600052603260045260246000fd5b6000604082019050611b3e60008301856116e5565b611b4b60208301846116e5565b9392505050565b7f4e487b7100000000000000000000000000000000000000000000000000000000600052601160045260246000fd5b6000611b8c826116db565b91507fffffffffffffffffffffffffffffffffffffffffffffffffffffffffffffffff8203611bbe57611bbd611b52565b5b600182019050919050565b7f4e487b7100000000000000000000000000000000000000000000000000000000600052602260045260246000fd5b60006002820490506001821680611c1057607f821691505b602082108103611c2357611c22611bc9565b5b50919050565b7f4f776e61626c653a206e6577206f776e657220697320746865207a65726f206160008201527f6464726573730000000000000000000000000000000000000000000000000000602082015250565b6000611c8560268361193a565b9150611c9082611c29565b604082019050919050565b60006020820190508181036000830152611cb481611c78565b9050919050565b60008160011c9050919050565b6000808291508390505b6001851115611d1257808604811115611cee57611ced611b52565b5b6001851615611cfd5780820291505b8081029050611d0b85611cbb565b9450611cd2565b94509492505050565b600082611d2b5760019050611de7565b81611d395760009050611de7565b8160018114611d4f5760028114611d5957611d88565b6001915050611de7565b60ff841115611d6b57611d6a611b52565b5b8360020a915084821115611d8257611d81611b52565b5b50611de7565b5060208310610133831016604e8410600b8410161715611dbd5782820a905083811115611db857611db7611b52565b5b611de7565b611dca8484846001611cc8565b92509050818404811115611de157611de0611b52565b5b81810290505b9392505050565b6000611df9826116db565b9150611e04836116db565b9250611e317fffffffffffffffffffffffffffffffffffffffffffffffffffffffffffffffff8484611d1b565b905092915050565b6000611e44826116db565b9150611e4f836116db565b9250828202611e5d816116db565b91508282048414831517611e7457611e73611b52565b5b5092915050565b7f676f686d00000000000000000000000000000000000000000000000000000000600082015250565b6000611eb1600483611aa7565b9150611ebc82611e7b565b600482019050919050565b6000611ed282611ea4565b9150819050919050565b7f7573646300000000000000000000000000000000000000000000000000000000600082015250565b6000611f12600483611aa7565b9150611f1d82611edc565b600482019050919050565b6000611f3382611f05565b9150819050919050565b7f6672617800000000000000000000000000000000000000000000000000000000600082015250565b6000611f73600483611aa7565b9150611f7e82611f3d565b600482019050919050565b6000611f9482611f66565b9150819050919050565b7f6461690000000000000000000000000000000000000000000000000000000000600082015250565b6000611fd4600383611aa7565b9150611fdf82611f9e565b600382019050919050565b6000611ff582611fc7565b9150819050919050565b7f496e76616c696420746f6b656e4e616d652c2069742073686f756c642062652060008201527f6f6e65206f6620676f686d2c20757364742c20757364632c20667261782c206460208201527f6169000000000000000000000000000000000000000000000000000000000000604082015250565b600061208160428361193a565b915061208c82611fff565b606082019050919050565b600060208201905081810360008301526120b081612074565b9050919050565b60006060820190506120cc60008301866117e4565b6120d960208301856117e4565b6120e660408301846116e5565b949350505050565b7f4f776e61626c653a2063616c6c6572206973206e6f7420746865206f776e6572600082015250565b600061212460208361193a565b915061212f826120ee565b602082019050919050565b6000602082019050818103600083015261215381612117565b9050919050565b600060408201905061216f60008301856117e4565b61217c60208301846116e5565b9392505050565b7f746f6b656e2041646472657373206e6f7420666f756e64210000000000000000600082015250565b60006121b960188361193a565b91506121c482612183565b602082019050919050565b600060208201905081810360008301526121e8816121ac565b9050919050565b6000815190506121fe8161171b565b92915050565b60006020828403121561221a57612219611542565b5b6000612228848285016121ef565b91505092915050565b7f5361666545524332303a204552433230206f7065726174696f6e20646964206e60008201527f6f74207375636365656400000000000000000000000000000000000000000000602082015250565b600061228d602a8361193a565b915061229882612231565b604082019050919050565b600060208201905081810360008301526122bc81612280565b9050919050565b7f416464726573733a20696e73756666696369656e742062616c616e636520666f60008201527f722063616c6c0000000000000000000000000000000000000000000000000000602082015250565b600061231f60268361193a565b915061232a826122c3565b604082019050919050565b6000602082019050818103600083015261234e81612312565b9050919050565b7f416464726573733a2063616c6c20746f206e6f6e2d636f6e7472616374000000600082015250565b600061238b601d8361193a565b915061239682612355565b602082019050919050565b600060208201905081810360008301526123ba8161237e565b9050919050565b600081519050919050565b600081905092915050565b60006123e2826123c1565b6123ec81856123cc565b93506123fc81856020860161194b565b80840191505092915050565b600061241482846123d7565b91508190509291505056fea2646970667358221220717a16ced93fcb921782de483c2448e33d0b0bf062ba5a42a7fafecb5c81005764736f6c63430008110033",
  "linkReferences": {},
  "deployedLinkReferences": {}
}