{
    "_format": "hh-sol-artifact-1",
    "contractName": "Ticket",
    "sourceName": "contracts/Ticket.sol",
    "abi": [
        {
            "inputs": [
                {
                    "internalType": "address",
                    "name": "multisig",
                    "type": "address"
                },
                {
                    "internalType": "address",
                    "name": "nftAddr",
                    "type": "address"
                },
                {
                    "internalType": "address",
                    "name": "ohmAddr",
                    "type": "address"
                },
                {
                    "internalType": "address",
                    "name": "usdcAddr",
                    "type": "address"
                },
                {
                    "internalType": "address",
                    "name": "fraxAddr",
                    "type": "address"
                },
                {
                    "internalType": "address",
                    "name": "daiAddr",
                    "type": "address"
                }
            ],
            "stateMutability": "nonpayable",
            "type": "constructor"
        },
        {
            "anonymous": false,
            "inputs": [
                {
                    "indexed": true,
                    "internalType": "address",
                    "name": "owner",
                    "type": "address"
                },
                {
                    "indexed": true,
                    "internalType": "address",
                    "name": "spender",
                    "type": "address"
                },
                {
                    "indexed": false,
                    "internalType": "uint256",
                    "name": "value",
                    "type": "uint256"
                }
            ],
            "name": "Approval",
            "type": "event"
        },
        {
            "anonymous": false,
            "inputs": [
                {
                    "indexed": true,
                    "internalType": "address",
                    "name": "previousOwner",
                    "type": "address"
                },
                {
                    "indexed": true,
                    "internalType": "address",
                    "name": "newOwner",
                    "type": "address"
                }
            ],
            "name": "OwnershipTransferred",
            "type": "event"
        },
        {
            "inputs": [
                {
                    "internalType": "string",
                    "name": "tokenName",
                    "type": "string"
                },
                {
                    "internalType": "string",
                    "name": "ticketName",
                    "type": "string"
                },
                {
                    "internalType": "bool",
                    "name": "isStableCoin",
                    "type": "bool"
                }
            ],
            "name": "buyTicket",
            "outputs": [],
            "stateMutability": "nonpayable",
            "type": "function"
        },
        {
            "inputs": [],
            "name": "dai",
            "outputs": [
                {
                    "internalType": "contract IERC20",
                    "name": "",
                    "type": "address"
                }
            ],
            "stateMutability": "view",
            "type": "function"
        },
        {
            "inputs": [],
            "name": "frax",
            "outputs": [
                {
                    "internalType": "contract IERC20",
                    "name": "",
                    "type": "address"
                }
            ],
            "stateMutability": "view",
            "type": "function"
        },
        {
            "inputs": [],
            "name": "gnosisMultiSigAddr",
            "outputs": [
                {
                    "internalType": "address",
                    "name": "",
                    "type": "address"
                }
            ],
            "stateMutability": "view",
            "type": "function"
        },
        {
            "inputs": [],
            "name": "inPersonTicketNFTAddr",
            "outputs": [
                {
                    "internalType": "address",
                    "name": "",
                    "type": "address"
                }
            ],
            "stateMutability": "view",
            "type": "function"
        },
        {
            "inputs": [],
            "name": "ohm",
            "outputs": [
                {
                    "internalType": "contract IERC20",
                    "name": "",
                    "type": "address"
                }
            ],
            "stateMutability": "view",
            "type": "function"
        },
        {
            "inputs": [
                {
                    "internalType": "string",
                    "name": "",
                    "type": "string"
                }
            ],
            "name": "ohmTicketPrices",
            "outputs": [
                {
                    "internalType": "uint256",
                    "name": "",
                    "type": "uint256"
                }
            ],
            "stateMutability": "view",
            "type": "function"
        },
        {
            "inputs": [],
            "name": "owner",
            "outputs": [
                {
                    "internalType": "address",
                    "name": "",
                    "type": "address"
                }
            ],
            "stateMutability": "view",
            "type": "function"
        },
        {
            "inputs": [],
            "name": "renounceOwnership",
            "outputs": [],
            "stateMutability": "nonpayable",
            "type": "function"
        },
        {
            "inputs": [
                {
                    "internalType": "address",
                    "name": "addr",
                    "type": "address"
                }
            ],
            "name": "setInPersonTicketNFTAddr",
            "outputs": [],
            "stateMutability": "nonpayable",
            "type": "function"
        },
        {
            "inputs": [
                {
                    "internalType": "string",
                    "name": "ticketName",
                    "type": "string"
                },
                {
                    "internalType": "bool",
                    "name": "isStableCoin",
                    "type": "bool"
                },
                {
                    "internalType": "uint256",
                    "name": "ticketPrice",
                    "type": "uint256"
                }
            ],
            "name": "setTicketPrice",
            "outputs": [],
            "stateMutability": "nonpayable",
            "type": "function"
        },
        {
            "inputs": [
                {
                    "internalType": "uint256",
                    "name": "",
                    "type": "uint256"
                }
            ],
            "name": "ticketTypes",
            "outputs": [
                {
                    "internalType": "string",
                    "name": "",
                    "type": "string"
                }
            ],
            "stateMutability": "view",
            "type": "function"
        },
        {
            "inputs": [
                {
                    "internalType": "address",
                    "name": "newOwner",
                    "type": "address"
                }
            ],
            "name": "transferOwnership",
            "outputs": [],
            "stateMutability": "nonpayable",
            "type": "function"
        },
        {
            "inputs": [
                {
                    "internalType": "string",
                    "name": "",
                    "type": "string"
                }
            ],
            "name": "usdTicketPrices",
            "outputs": [
                {
                    "internalType": "uint256",
                    "name": "",
                    "type": "uint256"
                }
            ],
            "stateMutability": "view",
            "type": "function"
        },
        {
            "inputs": [],
            "name": "usdc",
            "outputs": [
                {
                    "internalType": "contract IERC20",
                    "name": "",
                    "type": "address"
                }
            ],
            "stateMutability": "view",
            "type": "function"
        },
        {
            "inputs": [],
            "name": "withdrawToken",
            "outputs": [],
            "stateMutability": "nonpayable",
            "type": "function"
        }
    ],
    "bytecode": "0x60806040523480156200001157600080fd5b50604051620028cd380380620028cd83398181016040528101906200003791906200031f565b620000576200004b620001e960201b60201c565b620001f160201b60201c565b83600160006101000a81548173ffffffffffffffffffffffffffffffffffffffff021916908373ffffffffffffffffffffffffffffffffffffffff16021790555082600260006101000a81548173ffffffffffffffffffffffffffffffffffffffff021916908373ffffffffffffffffffffffffffffffffffffffff16021790555081600360006101000a81548173ffffffffffffffffffffffffffffffffffffffff021916908373ffffffffffffffffffffffffffffffffffffffff16021790555080600460006101000a81548173ffffffffffffffffffffffffffffffffffffffff021916908373ffffffffffffffffffffffffffffffffffffffff16021790555085600860006101000a81548173ffffffffffffffffffffffffffffffffffffffff021916908373ffffffffffffffffffffffffffffffffffffffff16021790555084600960006101000a81548173ffffffffffffffffffffffffffffffffffffffff021916908373ffffffffffffffffffffffffffffffffffffffff160217905550505050505050620003bb565b600033905090565b60008060009054906101000a900473ffffffffffffffffffffffffffffffffffffffff169050816000806101000a81548173ffffffffffffffffffffffffffffffffffffffff021916908373ffffffffffffffffffffffffffffffffffffffff1602179055508173ffffffffffffffffffffffffffffffffffffffff168173ffffffffffffffffffffffffffffffffffffffff167f8be0079c531659141344cd1fd0a4f28419497f9722a3daafe3b4186f6b6457e060405160405180910390a35050565b600080fd5b600073ffffffffffffffffffffffffffffffffffffffff82169050919050565b6000620002e782620002ba565b9050919050565b620002f981620002da565b81146200030557600080fd5b50565b6000815190506200031981620002ee565b92915050565b60008060008060008060c087890312156200033f576200033e620002b5565b5b60006200034f89828a0162000308565b96505060206200036289828a0162000308565b95505060406200037589828a0162000308565b94505060606200038889828a0162000308565b93505060806200039b89828a0162000308565b92505060a0620003ae89828a0162000308565b9150509295509295509295565b61250280620003cb6000396000f3fe608060405234801561001057600080fd5b50600436106101005760003560e01c806389b4ec8e11610097578063ca628c7811610066578063ca628c7814610277578063e9dbebce14610281578063f2fde38b146102b1578063f4b9fa75146102cd57610100565b806389b4ec8e146101ed5780638da5cb5b1461020b578063b1ead92414610229578063b79596521461025957610100565b80633ab7f2fe116100d35780633ab7f2fe1461018d5780633e413bee146101a9578063715018a6146101c75780637ce8e55a146101d157610100565b806302b1d2391461010557806313f2340614610123578063294fb4e51461015357806337c249bd1461016f575b600080fd5b61010d6102eb565b60405161011a919061166a565b60405180910390f35b61013d600480360381019061013891906117df565b610311565b60405161014a9190611841565b60405180910390f35b61016d60048036038101906101689190611894565b61033f565b005b610177610554565b6040516101849190611940565b60405180910390f35b6101a760048036038101906101a29190611987565b61057a565b005b6101b16105da565b6040516101be919061166a565b60405180910390f35b6101cf610600565b005b6101eb60048036038101906101e69190611a22565b610614565b005b6101f5610660565b604051610202919061166a565b60405180910390f35b610213610686565b6040516102209190611940565b60405180910390f35b610243600480360381019061023e91906117df565b6106af565b6040516102509190611841565b60405180910390f35b6102616106dd565b60405161026e9190611940565b60405180910390f35b61027f610703565b005b61029b60048036038101906102969190611a4f565b610b4d565b6040516102a89190611afb565b60405180910390f35b6102cb60048036038101906102c69190611a22565b610bf9565b005b6102d5610c7c565b6040516102e2919061166a565b60405180910390f35b600160009054906101000a900473ffffffffffffffffffffffffffffffffffffffff1681565b6006818051602081018201805184825260208301602085012081835280955050505050506000915090505481565b828282600061034f848484610ca2565b9050600061035c85610d3d565b90503073ffffffffffffffffffffffffffffffffffffffff163373ffffffffffffffffffffffffffffffffffffffff167f8c5be1e5ebec7d5bd14f71427d1e84f3dd0314c0f7b2291e5b200ac8c7c3b925846040516103bb9190611841565b60405180910390a3818173ffffffffffffffffffffffffffffffffffffffff1663dd62ed3e33306040518363ffffffff1660e01b81526004016103ff929190611b1d565b602060405180830381865afa15801561041c573d6000803e3d6000fd5b505050506040513d601f19601f820116820180604052508101906104409190611b5b565b1015610481576040517f08c379a000000000000000000000000000000000000000000000000000000000815260040161047890611bd4565b60405180910390fd5b600061048e898989610ca2565b9050600061049b8a610d3d565b90506104a981333085610f6b565b600960009054906101000a900473ffffffffffffffffffffffffffffffffffffffff1673ffffffffffffffffffffffffffffffffffffffff166354ba0f27336040518263ffffffff1660e01b81526004016105049190611940565b6020604051808303816000875af1158015610523573d6000803e3d6000fd5b505050506040513d601f19601f820116820180604052508101906105479190611b5b565b5050505050505050505050565b600960009054906101000a900473ffffffffffffffffffffffffffffffffffffffff1681565b610582610ff4565b60011515821515036105b2578060058460405161059f9190611c30565b9081526020016040518091039020819055505b806006846040516105c39190611c30565b908152602001604051809103902081905550505050565b600260009054906101000a900473ffffffffffffffffffffffffffffffffffffffff1681565b610608610ff4565b6106126000611072565b565b61061c610ff4565b80600960006101000a81548173ffffffffffffffffffffffffffffffffffffffff021916908373ffffffffffffffffffffffffffffffffffffffff16021790555050565b600360009054906101000a900473ffffffffffffffffffffffffffffffffffffffff1681565b60008060009054906101000a900473ffffffffffffffffffffffffffffffffffffffff16905090565b6005818051602081018201805184825260208301602085012081835280955050505050506000915090505481565b600860009054906101000a900473ffffffffffffffffffffffffffffffffffffffff1681565b61070b610ff4565b6000600160009054906101000a900473ffffffffffffffffffffffffffffffffffffffff1673ffffffffffffffffffffffffffffffffffffffff166370a08231306040518263ffffffff1660e01b81526004016107689190611940565b602060405180830381865afa158015610785573d6000803e3d6000fd5b505050506040513d601f19601f820116820180604052508101906107a99190611b5b565b90506000600260009054906101000a900473ffffffffffffffffffffffffffffffffffffffff1673ffffffffffffffffffffffffffffffffffffffff166370a08231306040518263ffffffff1660e01b81526004016108089190611940565b602060405180830381865afa158015610825573d6000803e3d6000fd5b505050506040513d601f19601f820116820180604052508101906108499190611b5b565b90506000600360009054906101000a900473ffffffffffffffffffffffffffffffffffffffff1673ffffffffffffffffffffffffffffffffffffffff166370a08231306040518263ffffffff1660e01b81526004016108a89190611940565b602060405180830381865afa1580156108c5573d6000803e3d6000fd5b505050506040513d601f19601f820116820180604052508101906108e99190611b5b565b90506000600460009054906101000a900473ffffffffffffffffffffffffffffffffffffffff1673ffffffffffffffffffffffffffffffffffffffff166370a08231306040518263ffffffff1660e01b81526004016109489190611940565b602060405180830381865afa158015610965573d6000803e3d6000fd5b505050506040513d601f19601f820116820180604052508101906109899190611b5b565b90506109fa600860009054906101000a900473ffffffffffffffffffffffffffffffffffffffff1685600160009054906101000a900473ffffffffffffffffffffffffffffffffffffffff1673ffffffffffffffffffffffffffffffffffffffff166111369092919063ffffffff16565b610a69600860009054906101000a900473ffffffffffffffffffffffffffffffffffffffff1684600260009054906101000a900473ffffffffffffffffffffffffffffffffffffffff1673ffffffffffffffffffffffffffffffffffffffff166111369092919063ffffffff16565b610ad8600860009054906101000a900473ffffffffffffffffffffffffffffffffffffffff1683600360009054906101000a900473ffffffffffffffffffffffffffffffffffffffff1673ffffffffffffffffffffffffffffffffffffffff166111369092919063ffffffff16565b610b47600860009054906101000a900473ffffffffffffffffffffffffffffffffffffffff1682600460009054906101000a900473ffffffffffffffffffffffffffffffffffffffff1673ffffffffffffffffffffffffffffffffffffffff166111369092919063ffffffff16565b50505050565b60078181548110610b5d57600080fd5b906000526020600020016000915090508054610b7890611c76565b80601f0160208091040260200160405190810160405280929190818152602001828054610ba490611c76565b8015610bf15780601f10610bc657610100808354040283529160200191610bf1565b820191906000526020600020905b815481529060010190602001808311610bd457829003601f168201915b505050505081565b610c01610ff4565b600073ffffffffffffffffffffffffffffffffffffffff168173ffffffffffffffffffffffffffffffffffffffff1603610c70576040517f08c379a0000000000000000000000000000000000000000000000000000000008152600401610c6790611d19565b60405180910390fd5b610c7981611072565b50565b600460009054906101000a900473ffffffffffffffffffffffffffffffffffffffff1681565b60006001151582151503610cf557610cb9846111bc565b600a610cc59190611e9b565b600584604051610cd59190611c30565b908152602001604051809103902054610cee9190611ee6565b9050610d36565b610cfe846111bc565b600a610d0a9190611e9b565b600684604051610d1a9190611c30565b908152602001604051809103902054610d339190611ee6565b90505b9392505050565b600081604051602001610d509190611c30565b60405160208183030381529060405280519060200120604051602001610d7590611f74565b6040516020818303038152906040528051906020012003610dba57600160009054906101000a900473ffffffffffffffffffffffffffffffffffffffff169050610f66565b81604051602001610dcb9190611c30565b60405160208183030381529060405280519060200120604051602001610df090611fd5565b6040516020818303038152906040528051906020012003610e3557600260009054906101000a900473ffffffffffffffffffffffffffffffffffffffff169050610f66565b81604051602001610e469190611c30565b60405160208183030381529060405280519060200120604051602001610e6b90612036565b6040516020818303038152906040528051906020012003610eb057600360009054906101000a900473ffffffffffffffffffffffffffffffffffffffff169050610f66565b81604051602001610ec19190611c30565b60405160208183030381529060405280519060200120604051602001610ee690612097565b6040516020818303038152906040528051906020012003610f2b57600460009054906101000a900473ffffffffffffffffffffffffffffffffffffffff169050610f66565b6040517f08c379a0000000000000000000000000000000000000000000000000000000008152600401610f5d90612144565b60405180910390fd5b919050565b610fee846323b872dd60e01b858585604051602401610f8c93929190612164565b604051602081830303815290604052907bffffffffffffffffffffffffffffffffffffffffffffffffffffffff19166020820180517bffffffffffffffffffffffffffffffffffffffffffffffffffffffff8381831617835250505050611366565b50505050565b610ffc61142d565b73ffffffffffffffffffffffffffffffffffffffff1661101a610686565b73ffffffffffffffffffffffffffffffffffffffff1614611070576040517f08c379a0000000000000000000000000000000000000000000000000000000008152600401611067906121e7565b60405180910390fd5b565b60008060009054906101000a900473ffffffffffffffffffffffffffffffffffffffff169050816000806101000a81548173ffffffffffffffffffffffffffffffffffffffff021916908373ffffffffffffffffffffffffffffffffffffffff1602179055508173ffffffffffffffffffffffffffffffffffffffff168173ffffffffffffffffffffffffffffffffffffffff167f8be0079c531659141344cd1fd0a4f28419497f9722a3daafe3b4186f6b6457e060405160405180910390a35050565b6111b78363a9059cbb60e01b8484604051602401611155929190612207565b604051602081830303815290604052907bffffffffffffffffffffffffffffffffffffffffffffffffffffffff19166020820180517bffffffffffffffffffffffffffffffffffffffffffffffffffffffff8381831617835250505050611366565b505050565b6000816040516020016111cf9190611c30565b604051602081830303815290604052805190602001206040516020016111f490611f74565b60405160208183030381529060405280519060200120036112185760099050611361565b816040516020016112299190611c30565b6040516020818303038152906040528051906020012060405160200161124e90611fd5565b60405160208183030381529060405280519060200120036112725760069050611361565b816040516020016112839190611c30565b604051602081830303815290604052805190602001206040516020016112a890612036565b60405160208183030381529060405280519060200120036112cc5760129050611361565b816040516020016112dd9190611c30565b6040516020818303038152906040528051906020012060405160200161130290612097565b60405160208183030381529060405280519060200120036113265760129050611361565b6040517f08c379a00000000000000000000000000000000000000000000000000000000081526004016113589061227c565b60405180910390fd5b919050565b60006113c8826040518060400160405280602081526020017f5361666545524332303a206c6f772d6c6576656c2063616c6c206661696c65648152508573ffffffffffffffffffffffffffffffffffffffff166114359092919063ffffffff16565b905060008151111561142857808060200190518101906113e891906122b1565b611427576040517f08c379a000000000000000000000000000000000000000000000000000000000815260040161141e90612350565b60405180910390fd5b5b505050565b600033905090565b6060611444848460008561144d565b90509392505050565b606082471015611492576040517f08c379a0000000000000000000000000000000000000000000000000000000008152600401611489906123e2565b60405180910390fd5b61149b85611561565b6114da576040517f08c379a00000000000000000000000000000000000000000000000000000000081526004016114d19061244e565b60405180910390fd5b6000808673ffffffffffffffffffffffffffffffffffffffff16858760405161150391906124b5565b60006040518083038185875af1925050503d8060008114611540576040519150601f19603f3d011682016040523d82523d6000602084013e611545565b606091505b5091509150611555828286611584565b92505050949350505050565b6000808273ffffffffffffffffffffffffffffffffffffffff163b119050919050565b60608315611594578290506115e4565b6000835111156115a75782518084602001fd5b816040517f08c379a00000000000000000000000000000000000000000000000000000000081526004016115db9190611afb565b60405180910390fd5b9392505050565b600073ffffffffffffffffffffffffffffffffffffffff82169050919050565b6000819050919050565b600061163061162b611626846115eb565b61160b565b6115eb565b9050919050565b600061164282611615565b9050919050565b600061165482611637565b9050919050565b61166481611649565b82525050565b600060208201905061167f600083018461165b565b92915050565b6000604051905090565b600080fd5b600080fd5b600080fd5b600080fd5b6000601f19601f8301169050919050565b7f4e487b7100000000000000000000000000000000000000000000000000000000600052604160045260246000fd5b6116ec826116a3565b810181811067ffffffffffffffff8211171561170b5761170a6116b4565b5b80604052505050565b600061171e611685565b905061172a82826116e3565b919050565b600067ffffffffffffffff82111561174a576117496116b4565b5b611753826116a3565b9050602081019050919050565b82818337600083830152505050565b600061178261177d8461172f565b611714565b90508281526020810184848401111561179e5761179d61169e565b5b6117a9848285611760565b509392505050565b600082601f8301126117c6576117c5611699565b5b81356117d684826020860161176f565b91505092915050565b6000602082840312156117f5576117f461168f565b5b600082013567ffffffffffffffff81111561181357611812611694565b5b61181f848285016117b1565b91505092915050565b6000819050919050565b61183b81611828565b82525050565b60006020820190506118566000830184611832565b92915050565b60008115159050919050565b6118718161185c565b811461187c57600080fd5b50565b60008135905061188e81611868565b92915050565b6000806000606084860312156118ad576118ac61168f565b5b600084013567ffffffffffffffff8111156118cb576118ca611694565b5b6118d7868287016117b1565b935050602084013567ffffffffffffffff8111156118f8576118f7611694565b5b611904868287016117b1565b92505060406119158682870161187f565b9150509250925092565b600061192a826115eb565b9050919050565b61193a8161191f565b82525050565b60006020820190506119556000830184611931565b92915050565b61196481611828565b811461196f57600080fd5b50565b6000813590506119818161195b565b92915050565b6000806000606084860312156119a05761199f61168f565b5b600084013567ffffffffffffffff8111156119be576119bd611694565b5b6119ca868287016117b1565b93505060206119db8682870161187f565b92505060406119ec86828701611972565b9150509250925092565b6119ff8161191f565b8114611a0a57600080fd5b50565b600081359050611a1c816119f6565b92915050565b600060208284031215611a3857611a3761168f565b5b6000611a4684828501611a0d565b91505092915050565b600060208284031215611a6557611a6461168f565b5b6000611a7384828501611972565b91505092915050565b600081519050919050565b600082825260208201905092915050565b60005b83811015611ab6578082015181840152602081019050611a9b565b60008484015250505050565b6000611acd82611a7c565b611ad78185611a87565b9350611ae7818560208601611a98565b611af0816116a3565b840191505092915050565b60006020820190508181036000830152611b158184611ac2565b905092915050565b6000604082019050611b326000830185611931565b611b3f6020830184611931565b9392505050565b600081519050611b558161195b565b92915050565b600060208284031215611b7157611b7061168f565b5b6000611b7f84828501611b46565b91505092915050565b7f4572726f72000000000000000000000000000000000000000000000000000000600082015250565b6000611bbe600583611a87565b9150611bc982611b88565b602082019050919050565b60006020820190508181036000830152611bed81611bb1565b9050919050565b600081905092915050565b6000611c0a82611a7c565b611c148185611bf4565b9350611c24818560208601611a98565b80840191505092915050565b6000611c3c8284611bff565b915081905092915050565b7f4e487b7100000000000000000000000000000000000000000000000000000000600052602260045260246000fd5b60006002820490506001821680611c8e57607f821691505b602082108103611ca157611ca0611c47565b5b50919050565b7f4f776e61626c653a206e6577206f776e657220697320746865207a65726f206160008201527f6464726573730000000000000000000000000000000000000000000000000000602082015250565b6000611d03602683611a87565b9150611d0e82611ca7565b604082019050919050565b60006020820190508181036000830152611d3281611cf6565b9050919050565b7f4e487b7100000000000000000000000000000000000000000000000000000000600052601160045260246000fd5b60008160011c9050919050565b6000808291508390505b6001851115611dbf57808604811115611d9b57611d9a611d39565b5b6001851615611daa5780820291505b8081029050611db885611d68565b9450611d7f565b94509492505050565b600082611dd85760019050611e94565b81611de65760009050611e94565b8160018114611dfc5760028114611e0657611e35565b6001915050611e94565b60ff841115611e1857611e17611d39565b5b8360020a915084821115611e2f57611e2e611d39565b5b50611e94565b5060208310610133831016604e8410600b8410161715611e6a5782820a905083811115611e6557611e64611d39565b5b611e94565b611e778484846001611d75565b92509050818404811115611e8e57611e8d611d39565b5b81810290505b9392505050565b6000611ea682611828565b9150611eb183611828565b9250611ede7fffffffffffffffffffffffffffffffffffffffffffffffffffffffffffffffff8484611dc8565b905092915050565b6000611ef182611828565b9150611efc83611828565b9250828202611f0a81611828565b91508282048414831517611f2157611f20611d39565b5b5092915050565b7f6f686d0000000000000000000000000000000000000000000000000000000000600082015250565b6000611f5e600383611bf4565b9150611f6982611f28565b600382019050919050565b6000611f7f82611f51565b9150819050919050565b7f7573646300000000000000000000000000000000000000000000000000000000600082015250565b6000611fbf600483611bf4565b9150611fca82611f89565b600482019050919050565b6000611fe082611fb2565b9150819050919050565b7f6672617800000000000000000000000000000000000000000000000000000000600082015250565b6000612020600483611bf4565b915061202b82611fea565b600482019050919050565b600061204182612013565b9150819050919050565b7f6461690000000000000000000000000000000000000000000000000000000000600082015250565b6000612081600383611bf4565b915061208c8261204b565b600382019050919050565b60006120a282612074565b9150819050919050565b7f496e76616c696420746f6b656e4e616d652c2069742073686f756c642062652060008201527f6f6e65206f66206f686d2c20757364742c20757364632c20667261782c20646160208201527f6900000000000000000000000000000000000000000000000000000000000000604082015250565b600061212e604183611a87565b9150612139826120ac565b606082019050919050565b6000602082019050818103600083015261215d81612121565b9050919050565b60006060820190506121796000830186611931565b6121866020830185611931565b6121936040830184611832565b949350505050565b7f4f776e61626c653a2063616c6c6572206973206e6f7420746865206f776e6572600082015250565b60006121d1602083611a87565b91506121dc8261219b565b602082019050919050565b60006020820190508181036000830152612200816121c4565b9050919050565b600060408201905061221c6000830185611931565b6122296020830184611832565b9392505050565b7f746f6b656e2041646472657373206e6f7420666f756e64210000000000000000600082015250565b6000612266601883611a87565b915061227182612230565b602082019050919050565b6000602082019050818103600083015261229581612259565b9050919050565b6000815190506122ab81611868565b92915050565b6000602082840312156122c7576122c661168f565b5b60006122d58482850161229c565b91505092915050565b7f5361666545524332303a204552433230206f7065726174696f6e20646964206e60008201527f6f74207375636365656400000000000000000000000000000000000000000000602082015250565b600061233a602a83611a87565b9150612345826122de565b604082019050919050565b600060208201905081810360008301526123698161232d565b9050919050565b7f416464726573733a20696e73756666696369656e742062616c616e636520666f60008201527f722063616c6c0000000000000000000000000000000000000000000000000000602082015250565b60006123cc602683611a87565b91506123d782612370565b604082019050919050565b600060208201905081810360008301526123fb816123bf565b9050919050565b7f416464726573733a2063616c6c20746f206e6f6e2d636f6e7472616374000000600082015250565b6000612438601d83611a87565b915061244382612402565b602082019050919050565b600060208201905081810360008301526124678161242b565b9050919050565b600081519050919050565b600081905092915050565b600061248f8261246e565b6124998185612479565b93506124a9818560208601611a98565b80840191505092915050565b60006124c18284612484565b91508190509291505056fea26469706673582212201111f3d98f52210da5782a854a09d80f97b13cabfe242fac52ec7430b217570664736f6c63430008110033",
    "linkReferences": {},
    "deployedLinkReferences": {}
}