{
  "_format": "hh-sol-artifact-1",
  "contractName": "Ticket",
  "sourceName": "contracts/Ticket.sol",
  "abi": [
    {
      "inputs": [
        {
          "internalType": "address",
          "name": "multisig",
          "type": "address"
        },
        {
          "internalType": "address",
          "name": "nftAddr",
          "type": "address"
        },
        {
          "internalType": "address",
          "name": "gohmAddr",
          "type": "address"
        },
        {
          "internalType": "address",
          "name": "fraxAddr",
          "type": "address"
        },
        {
          "internalType": "address",
          "name": "daiAddr",
          "type": "address"
        }
      ],
      "stateMutability": "nonpayable",
      "type": "constructor"
    },
    {
      "anonymous": false,
      "inputs": [
        {
          "indexed": true,
          "internalType": "address",
          "name": "owner",
          "type": "address"
        },
        {
          "indexed": true,
          "internalType": "address",
          "name": "spender",
          "type": "address"
        },
        {
          "indexed": false,
          "internalType": "uint256",
          "name": "value",
          "type": "uint256"
        }
      ],
      "name": "Approval",
      "type": "event"
    },
    {
      "anonymous": false,
      "inputs": [
        {
          "indexed": true,
          "internalType": "address",
          "name": "previousOwner",
          "type": "address"
        },
        {
          "indexed": true,
          "internalType": "address",
          "name": "newOwner",
          "type": "address"
        }
      ],
      "name": "OwnershipTransferred",
      "type": "event"
    },
    {
      "anonymous": false,
      "inputs": [
        {
          "indexed": true,
          "internalType": "address",
          "name": "gnosisMultiSigAddr",
          "type": "address"
        },
        {
          "indexed": false,
          "internalType": "uint256",
          "name": "tokenIdx",
          "type": "uint256"
        },
        {
          "indexed": false,
          "internalType": "uint256",
          "name": "tokenBalance",
          "type": "uint256"
        }
      ],
      "name": "WithdrawFundTo",
      "type": "event"
    },
    {
      "inputs": [
        {
          "internalType": "string",
          "name": "tokenName",
          "type": "string"
        },
        {
          "internalType": "string",
          "name": "ticketName",
          "type": "string"
        },
        {
          "internalType": "bool",
          "name": "isStableCoin",
          "type": "bool"
        }
      ],
      "name": "buyTicket",
      "outputs": [],
      "stateMutability": "nonpayable",
      "type": "function"
    },
    {
      "inputs": [],
      "name": "dai",
      "outputs": [
        {
          "internalType": "contract IERC20",
          "name": "",
          "type": "address"
        }
      ],
      "stateMutability": "view",
      "type": "function"
    },
    {
      "inputs": [],
      "name": "frax",
      "outputs": [
        {
          "internalType": "contract IERC20",
          "name": "",
          "type": "address"
        }
      ],
      "stateMutability": "view",
      "type": "function"
    },
    {
      "inputs": [],
      "name": "gnosisMultiSigAddr",
      "outputs": [
        {
          "internalType": "address",
          "name": "",
          "type": "address"
        }
      ],
      "stateMutability": "view",
      "type": "function"
    },
    {
      "inputs": [],
      "name": "gohm",
      "outputs": [
        {
          "internalType": "contract IERC20",
          "name": "",
          "type": "address"
        }
      ],
      "stateMutability": "view",
      "type": "function"
    },
    {
      "inputs": [
        {
          "internalType": "string",
          "name": "",
          "type": "string"
        }
      ],
      "name": "gohmTicketPrices",
      "outputs": [
        {
          "internalType": "uint256",
          "name": "",
          "type": "uint256"
        }
      ],
      "stateMutability": "view",
      "type": "function"
    },
    {
      "inputs": [],
      "name": "inPersonTicketNFTAddr",
      "outputs": [
        {
          "internalType": "address",
          "name": "",
          "type": "address"
        }
      ],
      "stateMutability": "view",
      "type": "function"
    },
    {
      "inputs": [],
      "name": "owner",
      "outputs": [
        {
          "internalType": "address",
          "name": "",
          "type": "address"
        }
      ],
      "stateMutability": "view",
      "type": "function"
    },
    {
      "inputs": [],
      "name": "renounceOwnership",
      "outputs": [],
      "stateMutability": "nonpayable",
      "type": "function"
    },
    {
      "inputs": [
        {
          "internalType": "address",
          "name": "addr",
          "type": "address"
        }
      ],
      "name": "setInPersonTicketNFTAddr",
      "outputs": [],
      "stateMutability": "nonpayable",
      "type": "function"
    },
    {
      "inputs": [
        {
          "internalType": "string",
          "name": "ticketName",
          "type": "string"
        },
        {
          "internalType": "bool",
          "name": "isStableCoin",
          "type": "bool"
        },
        {
          "internalType": "uint256",
          "name": "ticketPrice",
          "type": "uint256"
        }
      ],
      "name": "setTicketPrice",
      "outputs": [],
      "stateMutability": "nonpayable",
      "type": "function"
    },
    {
      "inputs": [
        {
          "internalType": "uint256",
          "name": "",
          "type": "uint256"
        }
      ],
      "name": "ticketTypes",
      "outputs": [
        {
          "internalType": "string",
          "name": "",
          "type": "string"
        }
      ],
      "stateMutability": "view",
      "type": "function"
    },
    {
      "inputs": [
        {
          "internalType": "address",
          "name": "newOwner",
          "type": "address"
        }
      ],
      "name": "transferOwnership",
      "outputs": [],
      "stateMutability": "nonpayable",
      "type": "function"
    },
    {
      "inputs": [
        {
          "internalType": "string",
          "name": "",
          "type": "string"
        }
      ],
      "name": "usdTicketPrices",
      "outputs": [
        {
          "internalType": "uint256",
          "name": "",
          "type": "uint256"
        }
      ],
      "stateMutability": "view",
      "type": "function"
    },
    {
      "inputs": [],
      "name": "withdrawToken",
      "outputs": [],
      "stateMutability": "nonpayable",
      "type": "function"
    }
  ],
  "bytecode": "0x60806040523480156200001157600080fd5b506040516200220e3803806200220e8339818101604052810190620000379190620002dd565b620000576200004b620001a760201b60201c565b620001af60201b60201c565b82600160006101000a81548173ffffffffffffffffffffffffffffffffffffffff021916908373ffffffffffffffffffffffffffffffffffffffff16021790555081600260006101000a81548173ffffffffffffffffffffffffffffffffffffffff021916908373ffffffffffffffffffffffffffffffffffffffff16021790555080600360006101000a81548173ffffffffffffffffffffffffffffffffffffffff021916908373ffffffffffffffffffffffffffffffffffffffff16021790555084600760006101000a81548173ffffffffffffffffffffffffffffffffffffffff021916908373ffffffffffffffffffffffffffffffffffffffff16021790555083600860006101000a81548173ffffffffffffffffffffffffffffffffffffffff021916908373ffffffffffffffffffffffffffffffffffffffff160217905550505050505062000365565b600033905090565b60008060009054906101000a900473ffffffffffffffffffffffffffffffffffffffff169050816000806101000a81548173ffffffffffffffffffffffffffffffffffffffff021916908373ffffffffffffffffffffffffffffffffffffffff1602179055508173ffffffffffffffffffffffffffffffffffffffff168173ffffffffffffffffffffffffffffffffffffffff167f8be0079c531659141344cd1fd0a4f28419497f9722a3daafe3b4186f6b6457e060405160405180910390a35050565b600080fd5b600073ffffffffffffffffffffffffffffffffffffffff82169050919050565b6000620002a58262000278565b9050919050565b620002b78162000298565b8114620002c357600080fd5b50565b600081519050620002d781620002ac565b92915050565b600080600080600060a08688031215620002fc57620002fb62000273565b5b60006200030c88828901620002c6565b95505060206200031f88828901620002c6565b94505060406200033288828901620002c6565b93505060606200034588828901620002c6565b92505060806200035888828901620002c6565b9150509295509295909350565b611e9980620003756000396000f3fe608060405234801561001057600080fd5b50600436106100f55760003560e01c806389b4ec8e11610097578063ca628c7811610066578063ca628c781461024e578063e9dbebce14610258578063f2fde38b14610288578063f4b9fa75146102a4576100f5565b806389b4ec8e146101c45780638da5cb5b146101e2578063b1ead92414610200578063b795965214610230576100f5565b806337c249bd116100d357806337c249bd146101645780633ab7f2fe14610182578063715018a61461019e5780637ce8e55a146101a8576100f5565b80630690b59e146100fa578063269d807714610118578063294fb4e514610148575b600080fd5b6101026102c2565b60405161010f9190611214565b60405180910390f35b610132600480360381019061012d9190611389565b6102e8565b60405161013f91906113eb565b60405180910390f35b610162600480360381019061015d919061143e565b610316565b005b61016c610529565b60405161017991906114ea565b60405180910390f35b61019c60048036038101906101979190611531565b61054f565b005b6101a66105af565b005b6101c260048036038101906101bd91906115cc565b6105c3565b005b6101cc61060f565b6040516101d99190611214565b60405180910390f35b6101ea610635565b6040516101f791906114ea565b60405180910390f35b61021a60048036038101906102159190611389565b61065e565b60405161022791906113eb565b60405180910390f35b61023861068c565b60405161024591906114ea565b60405180910390f35b6102566106b2565b005b610272600480360381019061026d91906115f9565b61095b565b60405161027f91906116a5565b60405180910390f35b6102a2600480360381019061029d91906115cc565b610a07565b005b6102ac610a8a565b6040516102b99190611214565b60405180910390f35b600160009054906101000a900473ffffffffffffffffffffffffffffffffffffffff1681565b6005818051602081018201805184825260208301602085012081835280955050505050506000915090505481565b82828260006103258383610ab0565b9050600061033285610b0c565b90503073ffffffffffffffffffffffffffffffffffffffff163373ffffffffffffffffffffffffffffffffffffffff167f8c5be1e5ebec7d5bd14f71427d1e84f3dd0314c0f7b2291e5b200ac8c7c3b9258460405161039191906113eb565b60405180910390a3818173ffffffffffffffffffffffffffffffffffffffff1663dd62ed3e33306040518363ffffffff1660e01b81526004016103d59291906116c7565b602060405180830381865afa1580156103f2573d6000803e3d6000fd5b505050506040513d601f19601f820116820180604052508101906104169190611705565b1015610457576040517f08c379a000000000000000000000000000000000000000000000000000000000815260040161044e9061177e565b60405180910390fd5b60006104638888610ab0565b905060006104708a610b0c565b905061047e81333085610cbf565b600860009054906101000a900473ffffffffffffffffffffffffffffffffffffffff1673ffffffffffffffffffffffffffffffffffffffff166354ba0f27336040518263ffffffff1660e01b81526004016104d991906114ea565b6020604051808303816000875af11580156104f8573d6000803e3d6000fd5b505050506040513d601f19601f8201168201806040525081019061051c9190611705565b5050505050505050505050565b600860009054906101000a900473ffffffffffffffffffffffffffffffffffffffff1681565b610557610d48565b6001151582151503610587578060048460405161057491906117da565b9081526020016040518091039020819055505b8060058460405161059891906117da565b908152602001604051809103902081905550505050565b6105b7610d48565b6105c16000610dc6565b565b6105cb610d48565b80600860006101000a81548173ffffffffffffffffffffffffffffffffffffffff021916908373ffffffffffffffffffffffffffffffffffffffff16021790555050565b600260009054906101000a900473ffffffffffffffffffffffffffffffffffffffff1681565b60008060009054906101000a900473ffffffffffffffffffffffffffffffffffffffff16905090565b6004818051602081018201805184825260208301602085012081835280955050505050506000915090505481565b600760009054906101000a900473ffffffffffffffffffffffffffffffffffffffff1681565b6106ba610d48565b60006040518060600160405280600160009054906101000a900473ffffffffffffffffffffffffffffffffffffffff1673ffffffffffffffffffffffffffffffffffffffff1673ffffffffffffffffffffffffffffffffffffffff168152602001600260009054906101000a900473ffffffffffffffffffffffffffffffffffffffff1673ffffffffffffffffffffffffffffffffffffffff1673ffffffffffffffffffffffffffffffffffffffff168152602001600360009054906101000a900473ffffffffffffffffffffffffffffffffffffffff1673ffffffffffffffffffffffffffffffffffffffff1673ffffffffffffffffffffffffffffffffffffffff16815250905060005b60038110156109575760008282600381106107e4576107e36117f1565b5b602002015173ffffffffffffffffffffffffffffffffffffffff166370a08231306040518263ffffffff1660e01b815260040161082191906114ea565b602060405180830381865afa15801561083e573d6000803e3d6000fd5b505050506040513d601f19601f820116820180604052508101906108629190611705565b905060008114610943576108d0600760009054906101000a900473ffffffffffffffffffffffffffffffffffffffff16828585600381106108a6576108a56117f1565b5b602002015173ffffffffffffffffffffffffffffffffffffffff16610e8a9092919063ffffffff16565b600760009054906101000a900473ffffffffffffffffffffffffffffffffffffffff1673ffffffffffffffffffffffffffffffffffffffff167f8e43cd31d7f059a59a2995cdd0810c0cdb54e60484bfc4c29b6d6baffd11ce12838360405161093a929190611820565b60405180910390a25b50808061094f90611878565b9150506107c6565b5050565b6006818154811061096b57600080fd5b906000526020600020016000915090508054610986906118ef565b80601f01602080910402602001604051908101604052809291908181526020018280546109b2906118ef565b80156109ff5780601f106109d4576101008083540402835291602001916109ff565b820191906000526020600020905b8154815290600101906020018083116109e257829003601f168201915b505050505081565b610a0f610d48565b600073ffffffffffffffffffffffffffffffffffffffff168173ffffffffffffffffffffffffffffffffffffffff1603610a7e576040517f08c379a0000000000000000000000000000000000000000000000000000000008152600401610a7590611992565b60405180910390fd5b610a8781610dc6565b50565b600360009054906101000a900473ffffffffffffffffffffffffffffffffffffffff1681565b60006001151582151503610ae457600483604051610ace91906117da565b9081526020016040518091039020549050610b06565b600583604051610af491906117da565b90815260200160405180910390205490505b92915050565b600081604051602001610b1f91906117da565b60405160208183030381529060405280519060200120604051602001610b44906119fe565b6040516020818303038152906040528051906020012003610b8957600160009054906101000a900473ffffffffffffffffffffffffffffffffffffffff169050610cba565b81604051602001610b9a91906117da565b60405160208183030381529060405280519060200120604051602001610bbf90611a5f565b6040516020818303038152906040528051906020012003610c0457600260009054906101000a900473ffffffffffffffffffffffffffffffffffffffff169050610cba565b81604051602001610c1591906117da565b60405160208183030381529060405280519060200120604051602001610c3a90611ac0565b6040516020818303038152906040528051906020012003610c7f57600360009054906101000a900473ffffffffffffffffffffffffffffffffffffffff169050610cba565b6040517f08c379a0000000000000000000000000000000000000000000000000000000008152600401610cb190611b47565b60405180910390fd5b919050565b610d42846323b872dd60e01b858585604051602401610ce093929190611b67565b604051602081830303815290604052907bffffffffffffffffffffffffffffffffffffffffffffffffffffffff19166020820180517bffffffffffffffffffffffffffffffffffffffffffffffffffffffff8381831617835250505050610f10565b50505050565b610d50610fd7565b73ffffffffffffffffffffffffffffffffffffffff16610d6e610635565b73ffffffffffffffffffffffffffffffffffffffff1614610dc4576040517f08c379a0000000000000000000000000000000000000000000000000000000008152600401610dbb90611bea565b60405180910390fd5b565b60008060009054906101000a900473ffffffffffffffffffffffffffffffffffffffff169050816000806101000a81548173ffffffffffffffffffffffffffffffffffffffff021916908373ffffffffffffffffffffffffffffffffffffffff1602179055508173ffffffffffffffffffffffffffffffffffffffff168173ffffffffffffffffffffffffffffffffffffffff167f8be0079c531659141344cd1fd0a4f28419497f9722a3daafe3b4186f6b6457e060405160405180910390a35050565b610f0b8363a9059cbb60e01b8484604051602401610ea9929190611c0a565b604051602081830303815290604052907bffffffffffffffffffffffffffffffffffffffffffffffffffffffff19166020820180517bffffffffffffffffffffffffffffffffffffffffffffffffffffffff8381831617835250505050610f10565b505050565b6000610f72826040518060400160405280602081526020017f5361666545524332303a206c6f772d6c6576656c2063616c6c206661696c65648152508573ffffffffffffffffffffffffffffffffffffffff16610fdf9092919063ffffffff16565b9050600081511115610fd25780806020019051810190610f929190611c48565b610fd1576040517f08c379a0000000000000000000000000000000000000000000000000000000008152600401610fc890611ce7565b60405180910390fd5b5b505050565b600033905090565b6060610fee8484600085610ff7565b90509392505050565b60608247101561103c576040517f08c379a000000000000000000000000000000000000000000000000000000000815260040161103390611d79565b60405180910390fd5b6110458561110b565b611084576040517f08c379a000000000000000000000000000000000000000000000000000000000815260040161107b90611de5565b60405180910390fd5b6000808673ffffffffffffffffffffffffffffffffffffffff1685876040516110ad9190611e4c565b60006040518083038185875af1925050503d80600081146110ea576040519150601f19603f3d011682016040523d82523d6000602084013e6110ef565b606091505b50915091506110ff82828661112e565b92505050949350505050565b6000808273ffffffffffffffffffffffffffffffffffffffff163b119050919050565b6060831561113e5782905061118e565b6000835111156111515782518084602001fd5b816040517f08c379a000000000000000000000000000000000000000000000000000000000815260040161118591906116a5565b60405180910390fd5b9392505050565b600073ffffffffffffffffffffffffffffffffffffffff82169050919050565b6000819050919050565b60006111da6111d56111d084611195565b6111b5565b611195565b9050919050565b60006111ec826111bf565b9050919050565b60006111fe826111e1565b9050919050565b61120e816111f3565b82525050565b60006020820190506112296000830184611205565b92915050565b6000604051905090565b600080fd5b600080fd5b600080fd5b600080fd5b6000601f19601f8301169050919050565b7f4e487b7100000000000000000000000000000000000000000000000000000000600052604160045260246000fd5b6112968261124d565b810181811067ffffffffffffffff821117156112b5576112b461125e565b5b80604052505050565b60006112c861122f565b90506112d4828261128d565b919050565b600067ffffffffffffffff8211156112f4576112f361125e565b5b6112fd8261124d565b9050602081019050919050565b82818337600083830152505050565b600061132c611327846112d9565b6112be565b90508281526020810184848401111561134857611347611248565b5b61135384828561130a565b509392505050565b600082601f8301126113705761136f611243565b5b8135611380848260208601611319565b91505092915050565b60006020828403121561139f5761139e611239565b5b600082013567ffffffffffffffff8111156113bd576113bc61123e565b5b6113c98482850161135b565b91505092915050565b6000819050919050565b6113e5816113d2565b82525050565b600060208201905061140060008301846113dc565b92915050565b60008115159050919050565b61141b81611406565b811461142657600080fd5b50565b60008135905061143881611412565b92915050565b60008060006060848603121561145757611456611239565b5b600084013567ffffffffffffffff8111156114755761147461123e565b5b6114818682870161135b565b935050602084013567ffffffffffffffff8111156114a2576114a161123e565b5b6114ae8682870161135b565b92505060406114bf86828701611429565b9150509250925092565b60006114d482611195565b9050919050565b6114e4816114c9565b82525050565b60006020820190506114ff60008301846114db565b92915050565b61150e816113d2565b811461151957600080fd5b50565b60008135905061152b81611505565b92915050565b60008060006060848603121561154a57611549611239565b5b600084013567ffffffffffffffff8111156115685761156761123e565b5b6115748682870161135b565b935050602061158586828701611429565b92505060406115968682870161151c565b9150509250925092565b6115a9816114c9565b81146115b457600080fd5b50565b6000813590506115c6816115a0565b92915050565b6000602082840312156115e2576115e1611239565b5b60006115f0848285016115b7565b91505092915050565b60006020828403121561160f5761160e611239565b5b600061161d8482850161151c565b91505092915050565b600081519050919050565b600082825260208201905092915050565b60005b83811015611660578082015181840152602081019050611645565b60008484015250505050565b600061167782611626565b6116818185611631565b9350611691818560208601611642565b61169a8161124d565b840191505092915050565b600060208201905081810360008301526116bf818461166c565b905092915050565b60006040820190506116dc60008301856114db565b6116e960208301846114db565b9392505050565b6000815190506116ff81611505565b92915050565b60006020828403121561171b5761171a611239565b5b6000611729848285016116f0565b91505092915050565b7f4572726f72000000000000000000000000000000000000000000000000000000600082015250565b6000611768600583611631565b915061177382611732565b602082019050919050565b600060208201905081810360008301526117978161175b565b9050919050565b600081905092915050565b60006117b482611626565b6117be818561179e565b93506117ce818560208601611642565b80840191505092915050565b60006117e682846117a9565b915081905092915050565b7f4e487b7100000000000000000000000000000000000000000000000000000000600052603260045260246000fd5b600060408201905061183560008301856113dc565b61184260208301846113dc565b9392505050565b7f4e487b7100000000000000000000000000000000000000000000000000000000600052601160045260246000fd5b6000611883826113d2565b91507fffffffffffffffffffffffffffffffffffffffffffffffffffffffffffffffff82036118b5576118b4611849565b5b600182019050919050565b7f4e487b7100000000000000000000000000000000000000000000000000000000600052602260045260246000fd5b6000600282049050600182168061190757607f821691505b60208210810361191a576119196118c0565b5b50919050565b7f4f776e61626c653a206e6577206f776e657220697320746865207a65726f206160008201527f6464726573730000000000000000000000000000000000000000000000000000602082015250565b600061197c602683611631565b915061198782611920565b604082019050919050565b600060208201905081810360008301526119ab8161196f565b9050919050565b7f676f686d00000000000000000000000000000000000000000000000000000000600082015250565b60006119e860048361179e565b91506119f3826119b2565b600482019050919050565b6000611a09826119db565b9150819050919050565b7f6672617800000000000000000000000000000000000000000000000000000000600082015250565b6000611a4960048361179e565b9150611a5482611a13565b600482019050919050565b6000611a6a82611a3c565b9150819050919050565b7f6461690000000000000000000000000000000000000000000000000000000000600082015250565b6000611aaa60038361179e565b9150611ab582611a74565b600382019050919050565b6000611acb82611a9d565b9150819050919050565b7f496e76616c696420746f6b656e4e616d652c2069742073686f756c642062652060008201527f6f6e65206f6620676f686d2c20757364742c20667261782c2064616900000000602082015250565b6000611b31603c83611631565b9150611b3c82611ad5565b604082019050919050565b60006020820190508181036000830152611b6081611b24565b9050919050565b6000606082019050611b7c60008301866114db565b611b8960208301856114db565b611b9660408301846113dc565b949350505050565b7f4f776e61626c653a2063616c6c6572206973206e6f7420746865206f776e6572600082015250565b6000611bd4602083611631565b9150611bdf82611b9e565b602082019050919050565b60006020820190508181036000830152611c0381611bc7565b9050919050565b6000604082019050611c1f60008301856114db565b611c2c60208301846113dc565b9392505050565b600081519050611c4281611412565b92915050565b600060208284031215611c5e57611c5d611239565b5b6000611c6c84828501611c33565b91505092915050565b7f5361666545524332303a204552433230206f7065726174696f6e20646964206e60008201527f6f74207375636365656400000000000000000000000000000000000000000000602082015250565b6000611cd1602a83611631565b9150611cdc82611c75565b604082019050919050565b60006020820190508181036000830152611d0081611cc4565b9050919050565b7f416464726573733a20696e73756666696369656e742062616c616e636520666f60008201527f722063616c6c0000000000000000000000000000000000000000000000000000602082015250565b6000611d63602683611631565b9150611d6e82611d07565b604082019050919050565b60006020820190508181036000830152611d9281611d56565b9050919050565b7f416464726573733a2063616c6c20746f206e6f6e2d636f6e7472616374000000600082015250565b6000611dcf601d83611631565b9150611dda82611d99565b602082019050919050565b60006020820190508181036000830152611dfe81611dc2565b9050919050565b600081519050919050565b600081905092915050565b6000611e2682611e05565b611e308185611e10565b9350611e40818560208601611642565b80840191505092915050565b6000611e588284611e1b565b91508190509291505056fea2646970667358221220e2064fce01f474731632360fe0beca9d92eb57632711dfce46373800b34fde3964736f6c63430008110033",
  "linkReferences": {},
  "deployedLinkReferences": {}
}